:100000000C9434000C9449000C9449000C94490061
:100010000C9449000C9449000C9449000C9449003C
:100020000C9449000C9449000C9449000C9449002C
:100030000C9449000C9449000C9449000C9449001C
:100040000C9449000C9449000C9449000C9449000C
:100050000C9449000C9449000C9449000C944900FC
:100060000C9449000C94490011241FBECFEFD8E036
:10007000DEBFCDBF11E0A0E0B1E0E2E9FBE002C0ED
:1000800005900D92A231B107D9F70E9487000C9418
:10009000C7050C940000CF93DF93CDB7DEB70E9465
:1000A00053020E9492020000DF91CF910895CF93F6
:1000B000DF93CDB7DEB72C970FB6F894DEBF0FBE37
:1000C000CDBF0E94D0029A83898389819A819E0143
:1000D0002D5F3F4F4AE050E0B9010E9487058CE058
:1000E00091E00E94E601CE0103960E94E60188ECB1
:1000F00090E00E9490000E94430200002C960FB6F0
:10010000F894DEBF0FBECDBFDF91CF910895CF939E
:10011000DF93CDB7DEB70E944B000E945700FDCFA2
:10012000CF93DF9300D000D0CDB7DEB79C838B8315
:1001300084E490E0FC01208184E490E02260FC01F2
:10014000208387E490E02DE7FC0120831A82198246
:100150002FC086E490E0FC01108285E490E0FC0171
:10016000208185E490E02360FC012083000085E38A
:1001700090E0FC018081882F90E082709927892B84
:10018000B1F385E390E0FC01208185E390E02260FB
:10019000FC01208385E490E0FC01208185E490E06F
:1001A0002C7FFC01208389819A8101969A8389831F
:1001B00029813A818B819C812817390754F20000EC
:1001C00000000F900F900F900F90DF91CF91089546
:1001D000CF93DF9300D000D0CDB7DEB79C838B8365
:1001E00084E490E0FC01208184E490E02260FC0142
:1001F000208387E490E028E0FC0120831A821982A2
:100200002FC086E490E0FC01108285E490E0FC01C0
:10021000208185E490E02160FC012083000085E3DB
:1002200090E0FC018081882F90E082709927892BD3
:10023000B1F385E390E0FC01208185E390E022604A
:10024000FC01208385E490E0FC01208185E490E0BE
:100250002E7FFC01208389819A8101969A8389836C
:1002600029813A818B819C812817390754F200003B
:1002700000000F900F900F900F90DF91CF91089595
:10028000CF93DF93CDB7DEB790910B01809105013D
:1002900041E050E0692F0E94650484E190E00E94F3
:1002A000E80090910B018091050140E050E0692F3A
:1002B0000E94650484E190E00E94E8000000DF9164
:1002C000CF910895CF93DF9300D000D000D0CDB769
:1002D000DEB78D836E838E81882349F090910A0169
:1002E0008091040141E050E0692F0E9465041A8268
:1002F000198225C08D81882F90E029813A812C5F59
:100300003F4F02C0959587952A95E2F7882F90E098
:100310009C012170332789819A818A5F9E4FFC015D
:10032000608189819A8180509F4FFC018081A90161
:100330000E94650489819A8101969A8389838981C3
:100340009A810497BCF20E9440011C821B8222C049
:100350008D81882F90E00B8002C0959587950A9437
:10036000E2F7882F90E09C01217033278B819C81DC
:100370008A5F9E4FFC0160818B819C8180509F4FE2
:10038000FC018081A9010E9465048B819C810196FA
:100390009C838B838B819C810497D4F20E944001C3
:1003A0008E81882349F090910A018091040140E0F8
:1003B00050E0692F0E946504000026960FB6F8945D
:1003C000DEBF0FBECDBFDF91CF910895CF93DF93F6
:1003D00000D000D0CDB7DEB79C838B831A82198200
:1003E00010C089819A812B813C81820F931FFC016F
:1003F000808161E00E94620189819A8101969A83DD
:10040000898389819A812B813C81820F931FFC0112
:100410008081882331F7000000000F900F900F902B
:100420000F90DF91CF910895CF93DF930F92CDB7C7
:10043000DEB78983898161E00E94620100000F902C
:10044000DF91CF910895CF93DF93CDB7DEB760E012
:1004500080E80E94620182E090E00E94900000002B
:10046000DF91CF910895CF93DF93CDB7DEB760E0F2
:1004700080EC0E94620182E090E00E949000000007
:10048000DF91CF910895CF93DF93CDB7DEB760E0D2
:1004900081E00E94620182E090E00E9490000000F2
:1004A000DF91CF910895CF93DF9300D0CDB7DEB722
:1004B0001A82198215C089819A818A5F9E4FFC0138
:1004C000208189819A8180509F4FFC0180814FE477
:1004D000622F0E94220389819A8101969A838983DF
:1004E00089819A8106973CF360E083E30E94620170
:1004F00060E082E30E94620160E088E20E946201A3
:1005000060E08CE00E94620160E081E00E94620194
:100510008AE090E00E94900000000F900F90DF9121
:10052000CF910895CF93DF93CDB7DEB784E290E00B
:10053000FC01208184E290E02062FC01208384E2BF
:1005400090E0FC01208184E290E02460FC012083A3
:1005500084E290E0FC01208184E290E02F7EFC01A7
:10056000208385E290E0FC01208185E290E0246018
:10057000FC0120838CE490E0FC0120818CE490E07D
:100580002165FC0120838DE490E0FC0120818DE455
:1005900090E02160FC0120830000DF91CF9108955D
:1005A000CF93DF9300D000D0CDB7DEB785E290E0E7
:1005B000FC01208185E290E02B7FFC0120838EE40A
:1005C00090E0FC01108200008DE490E0FC0180814D
:1005D0008823D4F78EE490E0FC01808189838EE447
:1005E00090E0FC01108200008DE490E0FC0180812D
:1005F0008823D4F78EE490E0FC0180818A8385E231
:1006000090E0FC01208185E290E02460FC012083E1
:100610008981882F90E0982F88279C0122273F719D
:100620008A81882F90E0822B932B959587959C83C8
:100630008B838B819C810F900F900F900F90DF9197
:10064000CF910895CF93DF9300D00F92CDB7DEB74F
:1006500089836A834B8391E08981823409F090E039
:1006600081E02B81293409F080E08923882361F11E
:1006700084E290E0FC018081482F8A81282F30E0BD
:1006800081E090E002C0880F991F2A95E2F78095DB
:10069000242F282384E290E0FC01208385E290E06F
:1006A000FC018081482F8A81282F30E081E090E092
:1006B00002C0880F991F2A95E2F7242F282B85E284
:1006C00090E0FC012083FAC08981823479F58B8126
:1006D0008F3461F584E290E0FC018081482F8A81AB
:1006E000282F30E081E090E002C0880F991F2A9502
:1006F000E2F7242F282B84E290E0FC01208385E29E
:1007000090E0FC018081482F8A81282F30E081E031
:1007100090E002C0880F991F2A95E2F78095242F58
:10072000282385E290E0FC012083C8C089818434BD
:1007300079F58B81893461F58AE290E0FC01808152
:10074000482F8A81282F30E081E090E002C0880F96
:10075000991F2A95E2F78095242F28238AE290E0BA
:10076000FC0120838BE290E0FC018081482F8A818C
:10077000282F30E081E090E002C0880F991F2A9571
:10078000E2F7242F282B8BE290E0FC01208396C017
:100790008981843479F58B818F3461F58AE290E028
:1007A000FC018081482F8A81282F30E081E090E091
:1007B00002C0880F991F2A95E2F7242F282B8AE27E
:1007C00090E0FC0120838BE290E0FC018081482FC7
:1007D0008A81282F30E081E090E002C0880F991FC5
:1007E0002A95E2F78095242F28238BE290E0FC01E4
:1007F000208364C08981833479F58B81893461F5E4
:1008000087E290E0FC018081482F8A81282F30E028
:1008100081E090E002C0880F991F2A95E2F7809549
:10082000242F282387E290E0FC01208388E290E0D7
:10083000FC018081482F8A81282F30E081E090E000
:1008400002C0880F991F2A95E2F7242F282B88E2EF
:1008500090E0FC01208332C08981833479F58B815B
:100860008F3461F587E290E0FC018081482F8A8116
:10087000282F30E081E090E002C0880F991F2A9570
:10088000E2F7242F282B87E290E0FC01208388E206
:1008900090E0FC018081482F8A81282F30E081E0A0
:1008A00090E002C0880F991F2A95E2F78095242FC7
:1008B000282388E290E0FC01208300C000000F9014
:1008C0000F900F90DF91CF910895CF93DF9300D0D9
:1008D00000D0CDB7DEB789836A835C834B8331E078
:1008E0008981823409F030E021E08B819C81892B61
:1008F00009F020E0832F82238823B9F085E290E07D
:10090000FC018081482F8A81282F30E081E090E02F
:1009100002C0880F991F2A95E2F78095242F28237B
:1009200085E290E0FC01208393C089818234D1F478
:100930008B819C810197B1F485E290E0FC0180817C
:10094000482F8A81282F30E081E090E002C0880F94
:10095000991F2A95E2F7242F282B85E290E0FC01CD
:10096000208376C089818434D9F48B819C81892B42
:10097000B9F48BE290E0FC018081482F8A81282F16
:1009800030E081E090E002C0880F991F2A95E2F7DD
:100990008095242F28238BE290E0FC01208358C00F
:1009A00089818434D1F48B819C810197B1F48BE2ED
:1009B00090E0FC018081482F8A81282F30E081E07F
:1009C00090E002C0880F991F2A95E2F7242F282B68
:1009D0008BE290E0FC0120833BC089818334D9F411
:1009E0008B819C81892BB9F488E290E0FC018081A5
:1009F000482F8A81282F30E081E090E002C0880FE4
:100A0000991F2A95E2F78095242F282388E290E009
:100A1000FC0120831DC089818334D1F48B819C81AA
:100A20000197B1F488E290E0FC018081482F8A812F
:100A3000282F30E081E090E002C0880F991F2A95AE
:100A4000E2F7242F282B88E290E0FC01208300C0ED
:100A500000000F900F900F900F90DF91CF910895AD
:100A6000CF93DF9300D0CDB7DEB789836A838981C6
:100A70008234B1F483E290E0FC018081882F90E021
:100A80002A81222F30E002C0959587952A95E2F7BA
:100A900081709927892B11F081E034C080E032C049
:100AA00089818434B1F489E290E0FC018081882F4F
:100AB00090E02A81222F30E002C0959587952A95F3
:100AC000E2F781709927892B11F081E01BC080E04B
:100AD00019C089818334B1F486E290E0FC01808101
:100AE000882F90E02A81222F30E002C095958795CB
:100AF0002A95E2F781709927892B11F081E002C0D5
:100B000080E000C00F900F90DF91CF9108954532A3
:100B1000510520F4423010F00C949205FB01108234
:100B2000CB010895BB274A3031F4992322F4BDE26A
:100B3000909581959F4F0C949E05BB27FB015527EF
:100B4000AA27880F991FAA1FA41710F0A41B83952A
:100B50005051B9F7A05DAA3308F0A95DA1930097A1
:100B600079F7B111B1931192CB010C94B705DC0167
:100B7000FC01672F71917723E1F7329704C07C91D4
:100B80006D9370836291AE17BF07C8F30895F89410
:020B9000FFCF95
:100B920044444444444200010203040676616C3A30
:020BA200200031
:00000001FF
