:100000000C9434000C9451000C9451000C94510049
:100010000C9451000C9451000C9451000C9451001C
:100020000C9451000C9451000C9451000C9453000A
:100030000C9451000C9451000C9451000C945100FC
:100040000C9451000C9451000C9451000C945100EC
:100050000C9451000C9451000C9451000C945100DC
:100060000C9451000C94510011241FBECFEFD8E026
:10007000DEBFCDBF11E0A0E0B1E0E2E9F6E002C0F2
:1000800005900D92A230B107D9F721E0A2E0B1E0CE
:1000900001C01D92A330B207E1F70E94D9000C9471
:1000A00047030C9400001F920F920FB60F92112479
:1000B0002F933F934F935F936F937F938F939F9370
:1000C000AF93BF93EF93FF93CF93DF93CDB7DEB79B
:1000D00080910001909101010297F9F48091020151
:1000E000882F90E021E0892B09F420E081E082272D
:1000F000882F90E081708093020180910201882F07
:1001000090E0AC0160E082E40E94250281E090E092
:10011000909301018093000109C0809100019091AA
:100120000101019690930101809300010000DF918D
:10013000CF91FF91EF91BF91AF919F918F917F915F
:100140006F915F914F913F912F910F900FBE0F9044
:100150001F901895CF93DF93CDB7DEB778944FE417
:1001600060E082E40E94E20088E890E024E938E957
:10017000FC01318320838FE690E0FC0120818FE633
:1001800090E02260FC01208381E890E0FC01208166
:1001900081E890E02D60FC0120830000DF91CF9189
:1001A0000895CF93DF93CDB7DEB70000DF91CF91F5
:1001B0000895CF93DF93CDB7DEB70E94AA000E94C7
:1001C000D100FDCFCF93DF9300D00F92CDB7DEB734
:1001D00089836A834B8391E08981823409F090E0BE
:1001E00081E02B81293409F080E08923882361F1A3
:1001F00084E290E0FC018081482F8A81282F30E042
:1002000081E090E002C0880F991F2A95E2F780955F
:10021000242F282384E290E0FC01208385E290E0F3
:10022000FC018081482F8A81282F30E081E090E016
:1002300002C0880F991F2A95E2F7242F282B85E208
:1002400090E0FC012083FAC08981823479F58B81AA
:100250008F3461F584E290E0FC018081482F8A812F
:10026000282F30E081E090E002C0880F991F2A9586
:10027000E2F7242F282B84E290E0FC01208385E222
:1002800090E0FC018081482F8A81282F30E081E0B6
:1002900090E002C0880F991F2A95E2F78095242FDD
:1002A000282385E290E0FC012083C8C08981843442
:1002B00079F58B81893461F58AE290E0FC018081D7
:1002C000482F8A81282F30E081E090E002C0880F1B
:1002D000991F2A95E2F78095242F28238AE290E03F
:1002E000FC0120838BE290E0FC018081482F8A8111
:1002F000282F30E081E090E002C0880F991F2A95F6
:10030000E2F7242F282B8BE290E0FC01208396C09B
:100310008981843479F58B818F3461F58AE290E0AC
:10032000FC018081482F8A81282F30E081E090E015
:1003300002C0880F991F2A95E2F7242F282B8AE202
:1003400090E0FC0120838BE290E0FC018081482F4B
:100350008A81282F30E081E090E002C0880F991F49
:100360002A95E2F78095242F28238BE290E0FC0168
:10037000208364C08981833479F58B81893461F568
:1003800087E290E0FC018081482F8A81282F30E0AD
:1003900081E090E002C0880F991F2A95E2F78095CE
:1003A000242F282387E290E0FC01208388E290E05C
:1003B000FC018081482F8A81282F30E081E090E085
:1003C00002C0880F991F2A95E2F7242F282B88E274
:1003D00090E0FC01208332C08981833479F58B81E0
:1003E0008F3461F587E290E0FC018081482F8A819B
:1003F000282F30E081E090E002C0880F991F2A95F5
:10040000E2F7242F282B87E290E0FC01208388E28A
:1004100090E0FC018081482F8A81282F30E081E024
:1004200090E002C0880F991F2A95E2F78095242F4B
:10043000282388E290E0FC01208300C000000F9098
:100440000F900F90DF91CF910895CF93DF9300D05D
:1004500000D0CDB7DEB789836A835C834B8331E0FC
:100460008981823409F030E021E08B819C81892BE5
:1004700009F020E0832F82238823B9F085E290E001
:10048000FC018081482F8A81282F30E081E090E0B4
:1004900002C0880F991F2A95E2F78095242F282300
:1004A00085E290E0FC01208393C089818234D1F4FD
:1004B0008B819C810197B1F485E290E0FC01808101
:1004C000482F8A81282F30E081E090E002C0880F19
:1004D000991F2A95E2F7242F282B85E290E0FC0152
:1004E000208376C089818434D9F48B819C81892BC7
:1004F000B9F48BE290E0FC018081482F8A81282F9B
:1005000030E081E090E002C0880F991F2A95E2F761
:100510008095242F28238BE290E0FC01208358C093
:1005200089818434D1F48B819C810197B1F48BE271
:1005300090E0FC018081482F8A81282F30E081E003
:1005400090E002C0880F991F2A95E2F7242F282BEC
:100550008BE290E0FC0120833BC089818334D9F495
:100560008B819C81892BB9F488E290E0FC01808129
:10057000482F8A81282F30E081E090E002C0880F68
:10058000991F2A95E2F78095242F282388E290E08E
:10059000FC0120831DC089818334D1F48B819C812F
:1005A0000197B1F488E290E0FC018081482F8A81B4
:1005B000282F30E081E090E002C0880F991F2A9533
:1005C000E2F7242F282B88E290E0FC01208300C072
:1005D00000000F900F900F900F90DF91CF91089532
:1005E000CF93DF9300D0CDB7DEB789836A8389814B
:1005F0008234B1F483E290E0FC018081882F90E0A6
:100600002A81222F30E002C0959587952A95E2F73E
:1006100081709927892B11F081E034C080E032C0CD
:1006200089818434B1F489E290E0FC018081882FD3
:1006300090E02A81222F30E002C0959587952A9577
:10064000E2F781709927892B11F081E01BC080E0CF
:1006500019C089818334B1F486E290E0FC01808185
:10066000882F90E02A81222F30E002C0959587954F
:100670002A95E2F781709927892B11F081E002C059
:1006800080E000C00F900F90DF91CF910895F89413
:02069000FFCF9A
:02069200010065
:00000001FF
