:100000000C9434000C9449000C9449000C94490061
:100010000C9449000C9449000C9449000C9449003C
:100020000C9449000C9449000C9449000C9449002C
:100030000C9449000C9449000C9449000C9449001C
:100040000C9449000C9449000C9449000C9449000C
:100050000C9449000C9449000C9449000C944900FC
:100060000C9449000C94490011241FBECFEFD8E036
:10007000DEBFCDBF11E0A0E0B1E0ECE9FEE002C0E0
:1000800005900D92A035B107D9F70E94B7000C94E6
:1000900040070C940000EF920F93CF93DF93CDB7FE
:1000A000DEB70E9483020E94E3058CE091E00E948B
:1000B00016020F2EFAE1EF2EF02D03E029E140E0C9
:1000C00067E08DE00E94FA058FE091E00E94160241
:1000D0000000DF91CF910F91EF900895EF92FF9282
:1000E0000F931F93CF93DF93CDB7DEB760970FB613
:1000F000F894DEBF0FBECDBFFE013696BE016B5F2A
:100100007F4F9E012C5F3F4FAE014D5F5F4FCE0191
:1001100002967F018B01BC01CE0101960E94400630
:100120008B81882F90E09E01295F3F4F4AE050E08D
:10013000B9010E94000782E191E00E941602CE01FF
:1001400007960E94160288EE93E00E94C0000E946B
:100150007302000060960FB6F894DEBF0FBECDBFED
:10016000DF91CF911F910F91FF90EF900895CF9362
:10017000DF93CDB7DEB70E944B000E946E00FDCF2B
:10018000CF93DF9300D000D0CDB7DEB79C838B83B5
:1001900084E490E0FC01208184E490E02260FC0192
:1001A000208387E490E02DE7FC0120831A821982E6
:1001B0002FC086E490E0FC01108285E490E0FC0111
:1001C000208185E490E02360FC012083000085E32A
:1001D00090E0FC018081882F90E082709927892B24
:1001E000B1F385E390E0FC01208185E390E022609B
:1001F000FC01208385E490E0FC01208185E490E00F
:100200002C7FFC01208389819A8101969A838983BE
:1002100029813A818B819C812817390754F200008B
:1002200000000F900F900F900F90DF91CF910895E5
:10023000CF93DF9300D000D0CDB7DEB79C838B8304
:1002400084E490E0FC01208184E490E02260FC01E1
:10025000208387E490E028E0FC0120831A82198241
:100260002FC086E490E0FC01108285E490E0FC0160
:10027000208185E490E02160FC012083000085E37B
:1002800090E0FC018081882F90E082709927892B73
:10029000B1F385E390E0FC01208185E390E02260EA
:1002A000FC01208385E490E0FC01208185E490E05E
:1002B0002E7FFC01208389819A8101969A8389830C
:1002C00029813A818B819C812817390754F20000DB
:1002D00000000F900F900F900F90DF91CF91089535
:1002E000CF93DF93CDB7DEB790910B0180910501DD
:1002F00041E050E0692F0E94050484E190E00E94F3
:10030000180190910B018091050140E050E0692FA8
:100310000E94050484E190E00E9418010000DF9132
:10032000CF910895CF93DF9300D000D000D0CDB708
:10033000DEB78D836E838E81882349F090910A0108
:100340008091040141E050E0692F0E9405041A8267
:10035000198225C08D81882F90E029813A812C5FF8
:100360003F4F02C0959587952A95E2F7882F90E038
:100370009C012170332789819A818A5F9E4FFC01FD
:10038000608189819A8180509F4FFC018081A90101
:100390000E94050489819A8101969A8389838981C3
:1003A0009A810497BCF20E9470011C821B8222C0B9
:1003B0008D81882F90E00B8002C0959587950A94D7
:1003C000E2F7882F90E09C01217033278B819C817C
:1003D0008A5F9E4FFC0160818B819C8180509F4F82
:1003E000FC018081A9010E9405048B819C810196FA
:1003F0009C838B838B819C810497D4F20E94700133
:100400008E81882349F090910A018091040140E097
:1004100050E0692F0E940504000026960FB6F8945C
:10042000DEBF0FBECDBFDF91CF910895CF93DF9395
:1004300000D000D0CDB7DEB79C838B831A8219829F
:1004400010C089819A812B813C81820F931FFC010E
:10045000808161E00E94920189819A8101969A834C
:10046000898389819A812B813C81820F931FFC01B2
:100470008081882331F7000000000F900F900F90CB
:100480000F90DF91CF910895CF93DF930F92CDB767
:10049000DEB78983898161E00E94920100000F909C
:1004A000DF91CF910895CF93DF93CDB7DEB760E0B2
:1004B00080E80E94920182E090E00E94C00000006B
:1004C000DF91CF910895CF93DF93CDB7DEB760E092
:1004D00080EC0E94920182E090E00E94C000000047
:1004E000DF91CF910895CF93DF93CDB7DEB760E072
:1004F00081E00E94920182E090E00E94C000000032
:10050000DF91CF910895CF93DF9300D0CDB7DEB7C1
:100510001A82198215C089819A818A5F9E4FFC01D7
:10052000208189819A8180509F4FFC0180814FE416
:10053000622F0E94C20289819A8101969A838983DF
:1005400089819A8106973CF360E083E30E949201DF
:1005500060E082E30E94920160E088E20E949201E2
:1005600060E08CE00E94920160E081E00E949201D4
:100570008AE090E00E94C00000000F900F90DF9191
:10058000CF910895CF93DF9300D00F92CDB7DEB710
:1005900089836A834B8391E08981823409F090E0FA
:1005A00081E02B81293409F080E08923882361F1DF
:1005B00084E290E0FC018081482F8A81282F30E07E
:1005C00081E090E002C0880F991F2A95E2F780959C
:1005D000242F282384E290E0FC01208385E290E030
:1005E000FC018081482F8A81282F30E081E090E053
:1005F00002C0880F991F2A95E2F7242F282B85E245
:1006000090E0FC012083FAC08981823479F58B81E6
:100610008F3461F584E290E0FC018081482F8A816B
:10062000282F30E081E090E002C0880F991F2A95C2
:10063000E2F7242F282B84E290E0FC01208385E25E
:1006400090E0FC018081482F8A81282F30E081E0F2
:1006500090E002C0880F991F2A95E2F78095242F19
:10066000282385E290E0FC012083C8C0898184347E
:1006700079F58B81893461F58AE290E0FC01808113
:10068000482F8A81282F30E081E090E002C0880F57
:10069000991F2A95E2F78095242F28238AE290E07B
:1006A000FC0120838BE290E0FC018081482F8A814D
:1006B000282F30E081E090E002C0880F991F2A9532
:1006C000E2F7242F282B8BE290E0FC01208396C0D8
:1006D0008981843479F58B818F3461F58AE290E0E9
:1006E000FC018081482F8A81282F30E081E090E052
:1006F00002C0880F991F2A95E2F7242F282B8AE23F
:1007000090E0FC0120838BE290E0FC018081482F87
:100710008A81282F30E081E090E002C0880F991F85
:100720002A95E2F78095242F28238BE290E0FC01A4
:10073000208364C08981833479F58B81893461F5A4
:1007400087E290E0FC018081482F8A81282F30E0E9
:1007500081E090E002C0880F991F2A95E2F780950A
:10076000242F282387E290E0FC01208388E290E098
:10077000FC018081482F8A81282F30E081E090E0C1
:1007800002C0880F991F2A95E2F7242F282B88E2B0
:1007900090E0FC01208332C08981833479F58B811C
:1007A0008F3461F587E290E0FC018081482F8A81D7
:1007B000282F30E081E090E002C0880F991F2A9531
:1007C000E2F7242F282B87E290E0FC01208388E2C7
:1007D00090E0FC018081482F8A81282F30E081E061
:1007E00090E002C0880F991F2A95E2F78095242F88
:1007F000282388E290E0FC01208300C000000F90D5
:100800000F900F90DF91CF910895CF93DF9300D099
:1008100000D0CDB7DEB789836A835C834B8331E038
:100820008981823409F030E021E08B819C81892B21
:1008300009F020E0832F82238823B9F085E290E03D
:10084000FC018081482F8A81282F30E081E090E0F0
:1008500002C0880F991F2A95E2F78095242F28233C
:1008600085E290E0FC01208393C089818234D1F439
:100870008B819C810197B1F485E290E0FC0180813D
:10088000482F8A81282F30E081E090E002C0880F55
:10089000991F2A95E2F7242F282B85E290E0FC018E
:1008A000208376C089818434D9F48B819C81892B03
:1008B000B9F48BE290E0FC018081482F8A81282FD7
:1008C00030E081E090E002C0880F991F2A95E2F79E
:1008D0008095242F28238BE290E0FC01208358C0D0
:1008E00089818434D1F48B819C810197B1F48BE2AE
:1008F00090E0FC018081482F8A81282F30E081E040
:1009000090E002C0880F991F2A95E2F7242F282B28
:100910008BE290E0FC0120833BC089818334D9F4D1
:100920008B819C81892BB9F488E290E0FC01808165
:10093000482F8A81282F30E081E090E002C0880FA4
:10094000991F2A95E2F78095242F282388E290E0CA
:10095000FC0120831DC089818334D1F48B819C816B
:100960000197B1F488E290E0FC018081482F8A81F0
:10097000282F30E081E090E002C0880F991F2A956F
:10098000E2F7242F282B88E290E0FC01208300C0AE
:1009900000000F900F900F900F90DF91CF9108956E
:1009A000CF93DF9300D0CDB7DEB789836A83898187
:1009B0008234B1F483E290E0FC018081882F90E0E2
:1009C0002A81222F30E002C0959587952A95E2F77B
:1009D00081709927892B11F081E034C080E032C00A
:1009E00089818434B1F489E290E0FC018081882F10
:1009F00090E02A81222F30E002C0959587952A95B4
:100A0000E2F781709927892B11F081E01BC080E00B
:100A100019C089818334B1F486E290E0FC018081C1
:100A2000882F90E02A81222F30E002C0959587958B
:100A30002A95E2F781709927892B11F081E002C095
:100A400080E000C00F900F90DF91CF910895CF9379
:100A5000DF93CDB7DEB788EB90E020E2FC01208386
:100A600089EB90E0FC0110828CEB90E024E0FC012B
:100A700020830000DF91CF910895CF93DF93CDB70E
:100A8000DEB78CEB90E024EAFC01208300008CEBC5
:100A900090E0FC0180818823D4F700000000DF9102
:100AA000CF910895CF93DF930F92CDB7DEB78983AF
:100AB0008BEB90E02981FC0120838CEB90E024E813
:100AC000FC01208300008CEB90E0FC0180818823F6
:100AD000D4F7000000000F90DF91CF910895CF93DD
:100AE000DF930F92CDB7DEB789838981882331F0F8
:100AF0008CEB90E024ECFC01208305C08CEB90E0B3
:100B000024E8FC01208300008CEB90E0FC01808154
:100B10008823D4F78BEB90E0FC0180810F90DF916C
:100B2000CF910895CF93DF93CDB7DEB78CEB90E0F4
:100B300024E9FC0120830000DF91CF910895CF9339
:100B4000DF930F92CDB7DEB7898399818DEC989FA3
:100B5000812D1124869586958695882F90E0829523
:100B60009295907F9827807F9827382F29818DEC48
:100B7000289F812D1124982F969596959695892FCB
:100B8000880F880F890F880F922F981B892F832B2E
:100B90000F90DF91CF910895CF93DF930F92CDB750
:100BA000DEB789838981982F92959F70892F880F4E
:100BB000880F890F880F982F89818F70890F0F9068
:100BC000DF91CF910895CF93DF93CDB7DEB70E9429
:100BD00027050E943D0580ED0E94520580E00E949D
:100BE000520580E00E9452050E9492050000DF91AC
:100BF000CF910895EF920F93CF93DF9300D000D061
:100C000000D0CDB7DEB789836A834B832C830D83F5
:100C1000EE820E943D0580ED0E94520580E00E9418
:100C200052058B810E949F050E9452058A810E9475
:100C30009F050E94520589810E949F050E945205CE
:100C400081E00E9452058C810E949F050E945205FE
:100C50008D810E949F050E9452058E810E949F05F2
:100C60000E9452050E949205000026960FB6F89445
:100C7000DEBF0FBECDBFDF91CF910F91EF900895F2
:100C8000EF92FF920F931F93CF93DF93CDB7DEB711
:100C90002C970FB6F894DEBF0FBECDBF9A83898321
:100CA0007C836B835E834D8338872F831A87098704
:100CB000FC86EB860E943D0580ED0E94520580E097
:100CC0000E9452050E943D0581ED0E94520581E07F
:100CD0000E946F050E94CC05282F8D819E81FC010A
:100CE000208381E00E946F050E94CC05282F8B8114
:100CF0009C81FC01208381E00E946F050E94CC054D
:100D0000282F89819A81FC01208381E00E946F0550
:100D100081E00E946F050E94CC05282F8F81988565
:100D2000FC01208381E00E946F050E94CC05282FE2
:100D300089859A85FC01208380E00E946F050E94CE
:100D4000CC05282F8B859C85FC0120830E94920571
:100D500000002C960FB6F894DEBF0FBECDBFDF911A
:100D6000CF911F910F91FF90EF900895CF93DF9354
:100D70000F92CDB7DEB789838981882F90E0092E45
:100D8000000CAA0BBB0B0197A109B1098C3091058E
:100D9000A105B10548F58E5B984FFC010C94FA064D
:100DA0008BE191E023C08FE191E020C083E291E0EC
:100DB0001DC087E291E01AC08BE291E017C08FE27C
:100DC00091E014C083E391E011C087E391E00EC08D
:100DD0008BE391E00BC08FE391E008C083E491E0E6
:100DE00005C087E491E002C08BE491E00F90DF91B1
:100DF000CF910895EE0FFF1F0590F491E02D099417
:100E00004532510520F4423010F00C940B07FB01E1
:100E10001082CB010895BB274A3031F4992322F484
:100E2000BDE2909581959F4F0C941707BB27FB015E
:100E30005527AA27880F991FAA1FA41710F0A41BD3
:100E400083955051B9F7A05DAA3308F0A95DA1932D
:100E5000009779F7B111B1931192CB010C9430073F
:100E6000DC01FC01672F71917723E1F7329704C011
:100E70007C916D9370836291AE17BF07C8F308959C
:100E8000F894FFCFD006D306D606D906DC06DF06D7
:0C0E9000E206E506E806EB06EE06F106B9
:100E9C0044444444444200010203040650310050CF
:100EAC0032005365636F6E643A20004A616E0046EF
:100EBC006562004D617200417072004D6179004AAB
:100ECC00756E004A756C0041756700536570004F74
:100EDC006374004E6F7600446563004572720000C7
:00000001FF
