:100000000C9434000C9451000C9451000C94510049
:100010000C9451000C9451000C9451000C9451001C
:100020000C9451000C9451000C9451000C9451000C
:100030000C9451000C9451000C94FB050C9451004D
:100040000C9451000C9451000C9451000C945100EC
:100050000C9451000C9451000C9451000C945100DC
:100060000C9451000C94510011241FBECFEFD8E026
:10007000DEBFCDBF11E0A0E0B1E0EAE1FDE002C0EB
:1000800005900D92A034B107D9F721E0A0E4B1E0CA
:1000900001C01D92A234B207E1F70E9476000C94D1
:1000A0007F060C940000EF920F93CF93DF93CDB7B0
:1000B000DEB70E9486010E94E4040F2EFAE1EF2EC3
:1000C000F02D03E029E140E067E08DE00E94FB04B1
:1000D0000000DF91CF910F91EF900895CF93DF93C0
:1000E000CDB7DEB70000DF91CF910895CF93DF93B6
:1000F000CDB7DEB70E9453000E946E00FDCFCF93B4
:10010000DF93CDB7DEB790910B018091050141E0FF
:1001100050E0692F0E94060381E090E00E943906BA
:1001200090910B018091050140E050E0692F0E9401
:10013000060381E090E00E9439060000DF91CF9134
:100140000895CF93DF9300D000D000D0CDB7DEB7B5
:100150008D836E838E81882349F090910A0180916E
:10016000040141E050E0692F0E9406031A821982BF
:1001700025C08D81882F90E029813A812C5F3F4FE7
:1001800002C0959587952A95E2F7882F90E09C010B
:100190002170332789819A818A5F9E4FFC0160819B
:1001A00089819A8180509F4FFC018081A9010E9422
:1001B000060389819A8101969A83898389819A812C
:1001C0000497BCF20E947F001C821B8222C08D819A
:1001D000882F90E00B8002C0959587950A94E2F7EE
:1001E000882F90E09C01217033278B819C818A5F4E
:1001F0009E4FFC0160818B819C8180509F4FFC0150
:100200008081A9010E9406038B819C8101969C83B9
:100210008B838B819C810497D4F20E947F008E8116
:10022000882349F090910A018091040140E050E058
:10023000692F0E940603000026960FB6F894DEBFD1
:100240000FBECDBFDF91CF910895CF93DF9300D044
:1002500000D0CDB7DEB79C838B831A82198210C081
:1002600089819A812B813C81820F931FFC018081BF
:1002700061E00E94A10089819A8101969A83898315
:1002800089819A812B813C81820F931FFC0180819F
:10029000882331F7000000000F900F900F900F900F
:1002A000DF91CF910895CF93DF930F92CDB7DEB753
:1002B0008983898161E00E94A10000000F90DF9195
:1002C000CF910895CF93DF93CDB7DEB760E080E89C
:1002D0000E94A1000000DF91CF910895CF93DF939A
:1002E000CDB7DEB760E080EC0E94A1000000DF9196
:1002F000CF910895CF93DF93CDB7DEB760E081E073
:100300000E94A1000000DF91CF910895CF93DF9369
:1003100000D0CDB7DEB70E9419061A82198215C027
:1003200089819A818A5F9E4FFC01208189819A810F
:1003300080509F4FFC0180814FE4622F0E94C301D7
:1003400089819A8101969A83898389819A81069706
:100350003CF360E083E30E94A10060E082E30E943E
:10036000A10060E088E20E94A10060E08EE00E94AF
:10037000A10060E081E00E94A10000000F900F90BA
:10038000DF91CF910895CF93DF9300D00F92CDB737
:10039000DEB789836A834B8391E08981823409F0D7
:1003A00090E081E02B81293409F080E089238823C3
:1003B00061F184E290E0FC018081482F8A81282F3E
:1003C00030E081E090E002C0880F991F2A95E2F7A3
:1003D0008095242F282384E290E0FC01208385E28D
:1003E00090E0FC018081482F8A81282F30E081E055
:1003F00090E002C0880F991F2A95E2F7242F282B3E
:1004000085E290E0FC012083FAC08981823479F58D
:100410008B818F3461F584E290E0FC018081482F6C
:100420008A81282F30E081E090E002C0880F991F78
:100430002A95E2F7242F282B84E290E0FC01208308
:1004400085E290E0FC018081482F8A81282F30E0EE
:1004500081E090E002C0880F991F2A95E2F780950D
:10046000242F282385E290E0FC012083C8C08981E5
:10047000843479F58B81893461F58AE290E0FC015E
:100480008081482F8A81282F30E081E090E002C0EF
:10049000880F991F2A95E2F78095242F28238AE256
:1004A00090E0FC0120838BE290E0FC018081482FEA
:1004B0008A81282F30E081E090E002C0880F991FE8
:1004C0002A95E2F7242F282B8BE290E0FC01208371
:1004D00096C08981843479F58B818F3461F58AE205
:1004E00090E0FC018081482F8A81282F30E081E054
:1004F00090E002C0880F991F2A95E2F7242F282B3D
:100500008AE290E0FC0120838BE290E0FC01808194
:10051000482F8A81282F30E081E090E002C0880FC8
:10052000991F2A95E2F78095242F28238BE290E0EB
:10053000FC01208364C08981833479F58B818934FF
:1005400061F587E290E0FC018081482F8A81282FA5
:1005500030E081E090E002C0880F991F2A95E2F711
:100560008095242F282387E290E0FC01208388E2F5
:1005700090E0FC018081482F8A81282F30E081E0C3
:1005800090E002C0880F991F2A95E2F7242F282BAC
:1005900088E290E0FC01208332C08981833479F5C0
:1005A0008B818F3461F587E290E0FC018081482FD8
:1005B0008A81282F30E081E090E002C0880F991FE7
:1005C0002A95E2F7242F282B87E290E0FC01208374
:1005D00088E290E0FC018081482F8A81282F30E05A
:1005E00081E090E002C0880F991F2A95E2F780957C
:1005F000242F282388E290E0FC01208300C0000023
:100600000F900F900F90DF91CF910895CF93DF93CC
:1006100000D000D0CDB7DEB789836A835C834B837B
:1006200031E08981823409F030E021E08B819C81C6
:10063000892B09F020E0832F82238823B9F085E2FB
:1006400090E0FC018081482F8A81282F30E081E0F2
:1006500090E002C0880F991F2A95E2F78095242F19
:10066000282385E290E0FC01208393C089818234B5
:10067000D1F48B819C810197B1F485E290E0FC017B
:100680008081482F8A81282F30E081E090E002C0ED
:10069000880F991F2A95E2F7242F282B85E290E0F6
:1006A000FC01208376C089818434D9F48B819C81BC
:1006B000892BB9F48BE290E0FC018081482F8A817C
:1006C000282F30E081E090E002C0880F991F2A9522
:1006D000E2F78095242F28238BE290E0FC01208311
:1006E00058C089818434D1F48B819C810197B1F405
:1006F0008BE290E0FC018081482F8A81282F30E036
:1007000081E090E002C0880F991F2A95E2F7242F1C
:10071000282B8BE290E0FC0120833BC0898183344D
:10072000D9F48B819C81892BB9F488E290E0FC019B
:100730008081482F8A81282F30E081E090E002C03C
:10074000880F991F2A95E2F78095242F282388E2A5
:1007500090E0FC0120831DC089818334D1F48B811A
:100760009C810197B1F488E290E0FC018081482FE0
:100770008A81282F30E081E090E002C0880F991F25
:100780002A95E2F7242F282B88E290E0FC012083B1
:1007900000C000000F900F900F900F90DF91CF914D
:1007A0000895CF93DF9300D0CDB7DEB789836A83F6
:1007B00089818234B1F483E290E0FC018081882F4A
:1007C00090E02A81222F30E002C0959587952A95E6
:1007D000E2F781709927892B11F081E034C080E025
:1007E00032C089818434B1F489E290E0FC018081D7
:1007F000882F90E02A81222F30E002C095958795BE
:100800002A95E2F781709927892B11F081E01BC0AE
:1008100080E019C089818334B1F486E290E0FC0164
:100820008081882F90E02A81222F30E002C09595A8
:1008300087952A95E2F781709927892B11F081E03D
:1008400002C080E000C00F900F90DF91CF9108951B
:10085000CF93DF93CDB7DEB788EB90E020E2FC01C9
:10086000208389EB90E0FC0110828CEB90E024E087
:10087000FC0120830000DF91CF910895CF93DF9397
:10088000CDB7DEB78CEB90E024EAFC0120830000BA
:100890008CEB90E0FC0180818823D4F700000000FD
:1008A000DF91CF910895CF93DF930F92CDB7DEB74D
:1008B00089838BEB90E02981FC0120838CEB90E015
:1008C00024E8FC01208300008CEB90E0FC01808197
:1008D0008823D4F7000000000F90DF91CF91089596
:1008E000CF93DF930F92CDB7DEB7898389818823B9
:1008F00031F08CEB90E024ECFC01208305C08CEB04
:1009000090E024E8FC01208300008CEB90E0FC01E7
:1009100080818823D4F78BEB90E0FC0180810F90DD
:10092000DF91CF910895CF93DF93CDB7DEB78CEBF6
:1009300090E024E9FC0120830000DF91CF9108952D
:10094000CF93DF930F92CDB7DEB7898399818DEC7A
:10095000989F812D1124869586958695882F90E005
:1009600082959295907F9827807F9827382F2981AC
:100970008DEC289F812D1124982F9695969596950C
:10098000892F880F880F890F880F922F981B892F26
:10099000832B0F90DF91CF910895CF93DF930F9228
:1009A000CDB7DEB789838981982F92959F70892F63
:1009B000880F880F890F880F982F89818F70890F72
:1009C0000F90DF91CF910895CF93DF93CDB7DEB72E
:1009D0000E9428040E943E0480ED0E94530480E09F
:1009E0000E94530480E00E9453040E94930400007C
:1009F000DF91CF910895EF920F93CF93DF9300D0C3
:100A000000D000D0CDB7DEB789836A834B832C83B7
:100A10000D83EE820E943E0480ED0E94530480E02C
:100A20000E9453048B810E94A0040E9453048A8177
:100A30000E94A0040E94530489810E94A0040E9485
:100A4000530481E00E9453048C810E94A0040E9400
:100A500053048D810E94A0040E9453048E810E9441
:100A6000A0040E9453040E949304000026960FB62F
:100A7000F894DEBF0FBECDBFDF91CF910F91EF9005
:100A80000895EF92FF920F931F93CF93DF93CDB70B
:100A9000DEB72C970FB6F894DEBF0FBECDBF9A839A
:100AA00089837C836B835E834D8338872F831A878A
:100AB0000987FC86EB860E943E0480ED0E94530469
:100AC00080E00E9453040E943E0481ED0E94530482
:100AD00081E00E9470040E94CD04282F8D819E81A8
:100AE000FC01208381E00E9470040E94CD04282F25
:100AF0008B819C81FC01208381E00E9470040E9414
:100B0000CD04282F89819A81FC01208381E00E94F5
:100B1000700481E00E9470040E94CD04282F8F8110
:100B20009885FC01208381E00E9470040E94CD041E
:100B3000282F89859A85FC01208380E00E9470041B
:100B40000E94CD04282F8B859C85FC0120830E9468
:100B5000930400002C960FB6F894DEBF0FBECDBFF5
:100B6000DF91CF911F910F91FF90EF900895CF9358
:100B7000DF930F92CDB7DEB789838981882F90E00C
:100B8000092E000CAA0BBB0B0197A109B1098C30EF
:100B90009105A105B10548F58F57994FFC010C94BB
:100BA00079068CE091E023C080E191E020C084E1EF
:100BB00091E01DC088E191E01AC08CE191E017C07E
:100BC00080E291E014C084E291E011C088E291E0FB
:100BD0000EC08CE291E00BC080E391E008C084E39A
:100BE00091E005C088E391E002C08CE391E00F90B2
:100BF000DF91CF9108951F920F920FB60F9211249B
:100C00008F939F93CF93DF93CDB7DEB78091400151
:100C10009091410101969093410180934001000021
:100C2000DF91CF919F918F910F900FBE0F901F90EA
:100C30001895CF93DF93CDB7DEB778948EE690E02A
:100C4000FC0120818EE690E02260FC01208384E498
:100C500090E0FC01208184E490E02260FC0120838C
:100C600087E490E027E0FC0120830000DF91CF9132
:100C70000895CF93DF9300D000D0CDB7DEB79C832B
:100C80008B8386E490E0FC01108285E490E0FC0117
:100C9000208185E490E02560FC0120838091400163
:100CA000909141019A838983000020914001309105
:100CB000410189819A81A901481B590BCA012B81E5
:100CC0003C81281739078CF785E490E0FC012081EE
:100CD00085E490E02A7FFC0120831092410110926C
:100CE000400100000F900F900F900F90DF91CF9177
:100CF0000895EE0FFF1F0590F491E02D0994F894EC
:100D0000FFCFD105D405D705DA05DD05E005E305FC
:0A0D1000E605E905EC05EF05F20524
:100D1A004444444444420001020304064A616E000A
:100D2A00466562004D617200417072004D61790042
:100D3A004A756E004A756C0041756700536570000C
:100D4A004F6374004E6F760044656300457272000B
:00000001FF
