:100000000C9434000C9451000C9451000C94510049
:100010000C9451000C9451000C9451000C9451001C
:100020000C9451000C9451000C9451000C9453000A
:100030000C9451000C9451000C9453010C945100F9
:100040000C9451000C9451000C9451000C945100EC
:100050000C9451000C9451000C9451000C945100DC
:100060000C9451000C94510011241FBECFEFD8E026
:10007000DEBFCDBF11E0A0E0B1E0E0E8FDE002C0EE
:1000800005900D92A036B107D9F721E0A0E6B1E0C6
:1000900001C01D92A537B207E1F70E944A010C94F6
:1000A000BE060C9400001F920F920FB60F921124FF
:1000B0002F933F938F939F93CF93DF93CDB7DEB76B
:1000C0002091000130910101809102019091030182
:1000D0002817390751F481E090E090930101809353
:1000E000000181E08093600109C08091000190913E
:1000F0000101019690930101809300010000DF91BE
:10010000CF919F918F913F912F910F900FBE0F90A4
:100110001F901895CF93DF93CDB7DEB70E941804D8
:100120000E94710149E465E083E40E9459047894D7
:1001300088E890E024E938E9FC01318320838FE6E8
:1001400090E0FC0120818FE690E02260FC0120839A
:1001500081E890E0FC01208181E890E02D60FC01C5
:1001600020830000DF91CF910895CF93DF930F920A
:10017000CDB7DEB7809160018823F1F00E94E803DB
:1001800088E391E00E94AB030E94E80387E491E0DA
:100190000E94AB0384EF91E00E948C010E94E8036F
:1001A00088E391E00E94AB030E94E8031092600193
:1001B00010926201109261010E9416028983898166
:1001C0008E3479F188EC90E00E948C0189810E9444
:1001D000D903809161019091620180599E4F2981DC
:1001E000FC012083809161019091620101969093BE
:1001F0006201809361018091610190916201049795
:1002000081F4109262011092610188EE93E00E94E5
:100210008C010E94E80388E391E00E94AB030E94F6
:10022000E80365E083E40E946706882399F48091DF
:100230006301882F90E021E0892B09F420E081E020
:100240008227882F90E081708093630184E690E09C
:100250000E948C01809163018823B9F00E94F80309
:1002600081E591E00E94AB030E94E8038091630165
:10027000882F90E021E0892B09F420E081E082279B
:10028000882F90E081708093630100000F90DF91D0
:10029000CF910895CF93DF93CDB7DEB70E948A0048
:1002A0000E94B500FDCF1F920F920FB60F9211243E
:1002B0008F939F93CF93DF93CDB7DEB78091640187
:1002C000909165010196909365018093640100000F
:1002D000DF91CF919F918F910F900FBE0F901F9044
:1002E0001895CF93DF93CDB7DEB778948EE690E084
:1002F000FC0120818EE690E02260FC01208384E4F2
:1003000090E0FC01208184E490E02260FC012083E5
:100310000000DF91CF910895CF93DF9300D000D0FC
:10032000CDB7DEB79C838B8387E490E02DE7FC019B
:10033000208386E490E0FC01108285E490E0FC01DB
:10034000208185E490E02360FC012083809164019A
:10035000909165019A838983000020916401309116
:10036000650189819A81A901481B590BCA012B811A
:100370003C81281739078CF785E490E0FC01208147
:1003800085E490E02C7FFC0120831092650110929F
:10039000640100000F900F900F900F90DF91CF91AC
:1003A0000895CF93DF9300D000D0CDB7DEB79C8304
:1003B0008B8387E490E028E0FC01208386E490E0D2
:1003C000FC01108285E490E0FC01208185E490E04E
:1003D0002160FC01208380916401909165019A83E2
:1003E00089830000209164013091650189819A819F
:1003F000A901481B590BCA012B813C8128173907D9
:100400008CF785E490E0FC01208185E490E02E7F6C
:10041000FC012083109265011092640100000F908E
:100420000F900F900F90DF91CF910895CF93DF93AE
:10043000CDB7DEB72A970FB6F894DEBF0FBECDBF9B
:100440008FEF9FEF9A8389838FEF9FEF9C838B833E
:100450001E821D822DC08D819E81880F991F885F0D
:100460009E4FFC0180819181282F8D819E818C5F20
:100470009E4FFC01808149E4622F0E9459048D81C6
:100480009E81880F991F8C5E9E4FFC018081918117
:10049000282F8D819E81805F9E4FFC0180814FE4DB
:1004A000622F0E9459048D819E8101969E838D83C7
:1004B0008D819E8104977CF218861F827FC08F8178
:1004C0009885880F991F885F9E4FFC0180819181DC
:1004D000282F8F8198858C5F9E4FFC0180814FE48F
:1004E000622F0E9459041A8619864AC089859A8506
:1004F000880F991F8C5E9E4FFC0180819181282F6F
:1005000089859A85805F9E4FFC01808149E4622F36
:100510000E94590489859A85880F991F8C5E9E4F89
:10052000FC0180819181282F89859A85805F9E4F6B
:10053000FC018081622F0E946706882341F48F812D
:1005400098859A83898389859A859C838B838985FD
:100550009A85880F991F8C5E9E4FFC018081918146
:10056000282F89859A85805F9E4FFC0180814FE40A
:10057000622F0E94590489859A8501969A878987F6
:1005800089859A8504970CF4B1CF8F819885880F5F
:10059000991F885F9E4FFC0180819181282F8F8158
:1005A00098858C5F9E4FFC01808149E4622F0E94F8
:1005B00059048F819885019698878F838F819885BC
:1005C00004970CF47CCF89819A81019621F08B816C
:1005D0009C81019611F48EE40FC089819A819C015F
:1005E000220F331F220F331F8B819C81820F931F99
:1005F000845E9E4FFC0180812A960FB6F894DEBF80
:100600000FBECDBFDF91CF910895CF93DF93CDB7CC
:10061000DEB7909137018091310141E050E0692FC0
:100620000E949C058AE090E00E94D10190913701E0
:100630008091310140E050E0692F0E949C058AE0E2
:1006400090E00E94D1010000DF91CF910895CF93F7
:10065000DF9300D000D000D0CDB7DEB78D836E839E
:100660008E81882349F0909136018091300141E0DC
:1006700050E0692F0E949C051A82198225C08D8145
:10068000882F90E029813A812C5F3F4F02C09595D9
:1006900087952A95E2F7882F90E09C0121703327F7
:1006A00089819A818E5C9E4FFC01608189819A814B
:1006B000845D9E4FFC018081A9010E949C05898177
:1006C0009A8101969A83898389819A810497BCF2E1
:1006D0000E9405031C821B8222C08D81882F90E01E
:1006E0000B8002C0959587950A94E2F7882F90E0D9
:1006F0009C01217033278B819C818E5C9E4FFC0175
:1007000060818B819C81845D9E4FFC018081A90169
:100710000E949C058B819C8101969C838B838B819D
:100720009C810497D4F20E9405038E81882349F0AE
:10073000909136018091300140E050E0692F0E9495
:100740009C05000026960FB6F894DEBF0FBECDBF05
:10075000DF91CF910895CF93DF9300D000D0CDB734
:10076000DEB79C838B831A82198210C089819A819B
:100770002B813C81820F931FFC01808161E00E94EC
:10078000270389819A8101969A83898389819A8135
:100790002B813C81820F931FFC018081882331F7DC
:1007A000000000000F900F900F900F90DF91CF91FD
:1007B0000895CF93DF930F92CDB7DEB789838981F8
:1007C00061E00E94270300000F90DF91CF91089510
:1007D000CF93DF93CDB7DEB760E080E80E942703B8
:1007E00081E090E00E948C010000DF91CF9108959C
:1007F000CF93DF93CDB7DEB760E080EC0E94270394
:1008000081E090E00E948C010000DF91CF9108957B
:10081000CF93DF93CDB7DEB760E081E00E9427037E
:1008200081E090E00E948C010000DF91CF9108955B
:10083000CF93DF9300D0CDB7DEB70E9471011A824B
:10084000198215C089819A818E5C9E4FFC0120819E
:1008500089819A81845D9E4FFC0180814FE4622FE3
:100860000E94590489819A8101969A83898389819A
:100870009A8106973CF360E083E30E94270360E0DF
:1008800082E30E94270360E088E20E94270360E081
:100890008CE00E94270360E081E00E94270381E052
:1008A00090E00E948C0100000F900F90DF91CF919B
:1008B0000895CF93DF9300D00F92CDB7DEB7898331
:1008C0006A834B8391E08981823409F090E081E072
:1008D0002B81293409F080E08923882361F184E2A7
:1008E00090E0FC018081482F8A81282F30E081E050
:1008F00090E002C0880F991F2A95E2F78095242F77
:10090000282384E290E0FC01208385E290E0FC0152
:100910008081482F8A81282F30E081E090E002C05A
:10092000880F991F2A95E2F7242F282B85E290E063
:10093000FC012083FAC08981823479F58B818F3460
:1009400061F584E290E0FC018081482F8A81282FA4
:1009500030E081E090E002C0880F991F2A95E2F70D
:10096000242F282B84E290E0FC01208385E290E094
:10097000FC018081482F8A81282F30E081E090E0BF
:1009800002C0880F991F2A95E2F78095242F28230B
:1009900085E290E0FC012083C8C08981843479F528
:1009A0008B81893461F58AE290E0FC018081482FD7
:1009B0008A81282F30E081E090E002C0880F991FE3
:1009C0002A95E2F78095242F28238AE290E0FC0103
:1009D00020838BE290E0FC018081482F8A81282FC0
:1009E00030E081E090E002C0880F991F2A95E2F77D
:1009F000242F282B8BE290E0FC01208396C0898174
:100A0000843479F58B818F3461F58AE290E0FC01C2
:100A10008081482F8A81282F30E081E090E002C059
:100A2000880F991F2A95E2F7242F282B8AE290E05D
:100A3000FC0120838BE290E0FC018081482F8A81B9
:100A4000282F30E081E090E002C0880F991F2A959E
:100A5000E2F78095242F28238BE290E0FC0120838D
:100A600064C08981833479F58B81893461F587E2AB
:100A700090E0FC018081482F8A81282F30E081E0BE
:100A800090E002C0880F991F2A95E2F78095242FE5
:100A9000282387E290E0FC01208388E290E0FC01BB
:100AA0008081482F8A81282F30E081E090E002C0C9
:100AB000880F991F2A95E2F7242F282B88E290E0CF
:100AC000FC01208332C08981833479F58B818F3496
:100AD00061F587E290E0FC018081482F8A81282F10
:100AE00030E081E090E002C0880F991F2A95E2F77C
:100AF000242F282B87E290E0FC01208388E290E0FD
:100B0000FC018081482F8A81282F30E081E090E02D
:100B100002C0880F991F2A95E2F78095242F282379
:100B200088E290E0FC01208300C000000F900F904D
:100B30000F90DF91CF910895CF93DF9300D000D035
:100B4000CDB7DEB789836A835C834B8331E08981CB
:100B5000823409F030E021E08B819C81892B09F0FF
:100B600020E0832F82238823B9F085E290E0FC0106
:100B70008081482F8A81282F30E081E090E002C0F8
:100B8000880F991F2A95E2F78095242F282385E264
:100B900090E0FC01208393C089818234D1F48B8161
:100BA0009C810197B1F485E290E0FC018081482F9F
:100BB0008A81282F30E081E090E002C0880F991FE1
:100BC0002A95E2F7242F282B85E290E0FC01208370
:100BD00076C089818434D9F48B819C81892BB9F4C6
:100BE0008BE290E0FC018081482F8A81282F30E041
:100BF00081E090E002C0880F991F2A95E2F7809566
:100C0000242F28238BE290E0FC01208358C08981A7
:100C10008434D1F48B819C810197B1F48BE290E014
:100C2000FC018081482F8A81282F30E081E090E00C
:100C300002C0880F991F2A95E2F7242F282B8BE2F8
:100C400090E0FC0120833BC089818334D9F48B81FF
:100C50009C81892BB9F488E290E0FC018081482FC7
:100C60008A81282F30E081E090E002C0880F991F30
:100C70002A95E2F78095242F282388E290E0FC0152
:100C800020831DC089818334D1F48B819C8101979D
:100C9000B1F488E290E0FC018081482F8A81282FFE
:100CA00030E081E090E002C0880F991F2A95E2F7BA
:100CB000242F282B88E290E0FC01208300C0000054
:100CC0000F900F900F900F90DF91CF910895CF93D9
:100CD000DF9300D0CDB7DEB789836A838981823400
:100CE000B1F483E290E0FC018081882F90E02A81BA
:100CF000222F30E002C0959587952A95E2F7817002
:100D00009927892B11F081E034C080E032C08981BD
:100D10008434B1F489E290E0FC018081882F90E076
:100D20002A81222F30E002C0959587952A95E2F717
:100D300081709927892B11F081E01BC080E019C0D8
:100D400089818334B1F486E290E0FC018081882FB0
:100D500090E02A81222F30E002C0959587952A9550
:100D6000E2F781709927892B11F081E002C080E0C1
:100D700000C00F900F90DF91CF910895F894FFCFAE
:100D8000010001004244444407000500060007003A
:100D9000424242420000010002000300313233416E
:100DA00034353642373839432A30234444444444A6
:100DB000444200010203040620202020202020209D
:100DC0002020202020200074696D6573207570211B
:100DD00000446F6F72206973206F70656E656400E8
:00000001FF
