:100000000C9434000C9451000C9451000C94510049
:100010000C9451000C9451000C9451000C9451001C
:100020000C9451000C9451000C9451000C9451000C
:100030000C9451000C9451000C9409010C94510043
:100040000C9451000C9451000C9451000C945100EC
:100050000C9451000C9451000C9451000C945100DC
:100060000C9451000C94510011241FBECFEFD8E026
:10007000DEBFCDBF11E0A0E0B1E0EAE6F2E102C0F0
:1000800005900D92AC35B107D9F721E0ACE5B1E0B0
:1000900001C01D92AE35B207E1F70E9400010C9439
:1000A00027090C940000EF920F93CF93DF93CDB705
:1000B000DEB70E948E020E9434050F2EFAE1EF2E69
:1000C000F02D03E029E140E067E08DE00E944B0560
:1000D0000000DF91CF910F91EF900895EF92FF9282
:1000E0000F931F93CF93DF93CDB7DEB7AE970FB6C5
:1000F000F894DEBF0FBECDBFFE013696BE016B5F2A
:100100007F4F9E012C5F3F4FAE014D5F5F4FCE0191
:1001100002967F018B01BC01CE0101960E949105E0
:100120008B81482F50E08A81282F30E08981882FE9
:1001300090E0652F6F934F93432F4F932F93292F69
:100140002F938F938CE091E0892F8F938CE091E037
:100150008F93CE010796292F2F938F930E945106DC
:100160008DB79EB70A960FB6F894DEBF0FBECDBF0F
:10017000CE0107960E942D020E9476028E81082FE2
:1001800010E08D810E9407069C018C81882F90E0F1
:10019000412F4F93402F4F93432F4F932F93292F4E
:1001A0002F938F938BE191E0892F8F938BE191E0D7
:1001B0008F93CE014B96292F2F938F930E94510638
:1001C0008DB79EB70A960FB6F894DEBF0FBECDBFAF
:1001D000CE014B960E942D0284E690E00E944701DA
:1001E0000E9482020000AE960FB6F894DEBF0FBEEA
:1001F000CDBFDF91CF911F910F91FF90EF900895A8
:10020000CF93DF93CDB7DEB70E9453000E946E00FC
:10021000FDCF1F920F920FB60F9211248F939F93D1
:10022000CF93DF93CDB7DEB780915C0190915D01F4
:10023000019690935D0180935C010000DF91CF9166
:100240009F918F910F900FBE0F901F901895CF9395
:10025000DF93CDB7DEB778948EE690E0FC01208185
:100260008EE690E02260FC01208384E490E0FC01B3
:10027000208184E490E02260FC01208387E490E008
:1002800027E0FC0120830000DF91CF910895CF93F8
:10029000DF9300D000D0CDB7DEB79C838B8386E49C
:1002A00090E0FC01108285E490E0FC01208185E46F
:1002B00090E02560FC01208380915C0190915D01BC
:1002C0009A838983000020915C0130915D018981CE
:1002D0009A81A901481B590BCA012B813C8128171F
:1002E00039078CF785E490E0FC01208185E490E0FB
:1002F0002A7FFC01208310925D0110925C010000B6
:100300000F900F900F900F90DF91CF910895CF93A2
:10031000DF93CDB7DEB790910B018091050141E0ED
:1003200050E0692F0E94AA0381E090E00E944701FB
:1003300090910B018091050140E050E0692F0E94EF
:10034000AA0381E090E00E9447010000DF91CF9175
:100350000895CF93DF9300D000D000D0CDB7DEB7A3
:100360008D836E838E81882349F090910A0180915C
:10037000040141E050E0692F0E94AA031A82198209
:1003800025C08D81882F90E029813A812C5F3F4FD5
:1003900002C0959587952A95E2F7882F90E09C01F9
:1003A0002170332789819A818A5F9E4FFC01608189
:1003B00089819A8180509F4FFC018081A9010E9410
:1003C000AA0389819A8101969A83898389819A8176
:1003D0000497BCF20E9487011C821B8222C08D817F
:1003E000882F90E00B8002C0959587950A94E2F7DC
:1003F000882F90E09C01217033278B819C818A5F3C
:100400009E4FFC0160818B819C8180509F4FFC013D
:100410008081A9010E94AA038B819C8101969C8303
:100420008B838B819C810497D4F20E9487018E81FB
:10043000882349F090910A018091040140E050E046
:10044000692F0E94AA03000026960FB6F894DEBF1B
:100450000FBECDBFDF91CF910895CF93DF9300D032
:1004600000D0CDB7DEB79C838B831A82198210C06F
:1004700089819A812B813C81820F931FFC018081AD
:1004800061E00E94A90189819A8101969A838983FA
:1004900089819A812B813C81820F931FFC0180818D
:1004A000882331F7000000000F900F900F900F90FD
:1004B000DF91CF910895CF93DF930F92CDB7DEB741
:1004C0008983898161E00E94A90100000F90DF917A
:1004D000CF910895CF93DF93CDB7DEB760E080E88A
:1004E0000E94A9010000DF91CF910895CF93DF937F
:1004F000CDB7DEB760E080EC0E94A9010000DF917B
:10050000CF910895CF93DF93CDB7DEB760E081E060
:100510000E94A9010000DF91CF910895CF93DF934E
:1005200000D0CDB7DEB70E9427011A82198215C00C
:1005300089819A818A5F9E4FFC01208189819A81FD
:1005400080509F4FFC0180814FE4622F0E94CB02BC
:1005500089819A8101969A83898389819A810697F4
:100560003CF360E083E30E94A90160E082E30E9423
:10057000A90160E088E20E94A90160E08EE00E948B
:10058000A90160E081E00E94A90100000F900F9096
:10059000DF91CF910895CF93DF9300D00F92CDB725
:1005A000DEB789836A834B8391E08981823409F0C5
:1005B00090E081E02B81293409F080E089238823B1
:1005C00061F184E290E0FC018081482F8A81282F2C
:1005D00030E081E090E002C0880F991F2A95E2F791
:1005E0008095242F282384E290E0FC01208385E27B
:1005F00090E0FC018081482F8A81282F30E081E043
:1006000090E002C0880F991F2A95E2F7242F282B2B
:1006100085E290E0FC01208396C08981823479F5DF
:100620008B818F3461F584E290E0FC018081482F5A
:100630008A81282F30E081E090E002C0880F991F66
:100640002A95E2F7242F282B84E290E0FC012083F6
:1006500085E290E0FC018081482F8A81282F30E0DC
:1006600081E090E002C0880F991F2A95E2F78095FB
:10067000242F282385E290E0FC01208364C0898137
:10068000843479F58B81893461F58AE290E0FC014C
:100690008081482F8A81282F30E081E090E002C0DD
:1006A000880F991F2A95E2F78095242F28238AE244
:1006B00090E0FC0120838BE290E0FC018081482FD8
:1006C0008A81282F30E081E090E002C0880F991FD6
:1006D0002A95E2F7242F282B8BE290E0FC0120835F
:1006E00032C08981843479F58B818F3461F58AE257
:1006F00090E0FC018081482F8A81282F30E081E042
:1007000090E002C0880F991F2A95E2F7242F282B2A
:100710008AE290E0FC0120838BE290E0FC01808182
:10072000482F8A81282F30E081E090E002C0880FB6
:10073000991F2A95E2F78095242F28238BE290E0D9
:10074000FC01208300C000000F900F900F90DF91FC
:10075000CF910895CF93DF9300D000D0CDB7DEB70F
:1007600089836A835C834B8331E08981823409F019
:1007700030E021E08B819C81892B09F020E0832FE0
:1007800082238823B9F085E290E0FC018081482F24
:100790008A81282F30E081E090E002C0880F991F05
:1007A0002A95E2F78095242F282385E290E0FC012A
:1007B000208358C089818234D1F48B819C81019738
:1007C000B1F485E290E0FC018081482F8A81282FD6
:1007D00030E081E090E002C0880F991F2A95E2F78F
:1007E000242F282B85E290E0FC0120833BC08981E7
:1007F0008434D9F48B819C81892BB9F48BE290E00D
:10080000FC018081482F8A81282F30E081E090E030
:1008100002C0880F991F2A95E2F78095242F28237C
:100820008BE290E0FC0120831DC089818434D1F4E7
:100830008B819C810197B1F48BE290E0FC01808177
:10084000482F8A81282F30E081E090E002C0880F95
:10085000991F2A95E2F7242F282B8BE290E0FC01C8
:10086000208300C000000F900F900F900F90DF9139
:10087000CF910895CF93DF9300D0CDB7DEB78983B2
:100880006A8389818234B1F483E290E0FC01808143
:10089000882F90E02A81222F30E002C0959587951D
:1008A0002A95E2F781709927892B11F081E01BC00E
:1008B00080E019C089818434B1F489E290E0FC01C0
:1008C0008081882F90E02A81222F30E002C0959508
:1008D00087952A95E2F781709927892B11F081E09D
:1008E00002C080E000C00F900F90DF91CF9108957B
:1008F000CF93DF93CDB7DEB788EB90E020E2FC0129
:10090000208389EB90E0FC0110828CEB90E024E0E6
:10091000FC0120830000DF91CF910895CF93DF93F6
:10092000CDB7DEB78CEB90E024EAFC012083000019
:100930008CEB90E0FC0180818823D4F7000000005C
:10094000DF91CF910895CF93DF930F92CDB7DEB7AC
:1009500089838BEB90E02981FC0120838CEB90E074
:1009600024E8FC01208300008CEB90E0FC018081F6
:100970008823D4F7000000000F90DF91CF910895F5
:10098000CF93DF930F92CDB7DEB789838981882318
:1009900031F08CEB90E024ECFC01208305C08CEB63
:1009A00090E024E8FC01208300008CEB90E0FC0147
:1009B00080818823D4F78BEB90E0FC0180810F903D
:1009C000DF91CF910895CF93DF93CDB7DEB78CEB56
:1009D00090E024E9FC0120830000DF91CF9108958D
:1009E000CF93DF930F92CDB7DEB7898399818DECDA
:1009F000989F812D1124869586958695882F90E065
:100A000082959295907F9827807F9827382F29810B
:100A10008DEC289F812D1124982F9695969596956B
:100A2000892F880F880F890F880F922F981B892F85
:100A3000832B0F90DF91CF910895CF93DF930F9287
:100A4000CDB7DEB789838981982F92959F70892FC2
:100A5000880F880F890F880F982F89818F70890FD1
:100A60000F90DF91CF910895CF93DF93CDB7DEB78D
:100A70000E9478040E948E0480ED0E94A30480E00E
:100A80000E94A30480E00E94A3040E94E3040000EB
:100A9000DF91CF910895EF920F93CF93DF9300D022
:100AA00000D000D0CDB7DEB789836A834B832C8317
:100AB0000D83EE820E948E0480ED0E94A30480E0EC
:100AC0000E94A3048B810E94F0040E94A3048A81E7
:100AD0000E94F0040E94A30489810E94F0040E94F5
:100AE000A30481E00E94A3048C810E94F0040E9470
:100AF000A3048D810E94F0040E94A3048E810E94B1
:100B0000F0040E94A3040E94E304000026960FB69E
:100B1000F894DEBF0FBECDBFDF91CF910F91EF9064
:100B20000895EF92FF920F931F93CF93DF93CDB76A
:100B3000DEB72C970FB6F894DEBF0FBECDBF9A83F9
:100B400089837C836B835E834D8338872F831A87E9
:100B50000987FC86EB860E948E0480ED0E94A30428
:100B600080E00E94A3040E948E0481ED0E94A304F1
:100B700081E00E94C0040E941D05282F8D819E8166
:100B8000FC01208381E00E94C0040E941D05282FE3
:100B90008B819C81FC01208381E00E94C0040E9423
:100BA0001D05282F89819A81FC01208381E00E9404
:100BB000C00481E00E94C0040E941D05282F8F817F
:100BC0009885FC01208381E00E94C0040E941D05DD
:100BD000282F89859A85FC01208380E00E94C0042B
:100BE0000E941D05282F8B859C85FC0120830E9477
:100BF000E30400002C960FB6F894DEBF0FBECDBF05
:100C0000DF91CF911F910F91FF90EF900895CF93B7
:100C1000DF930F92CDB7DEB789838981882F90E06B
:100C2000092E000CAA0BBB0B0197A109B1098C304E
:100C30009105A105B10548F5875D964FFC010C941F
:100C40004B0688E291E023C08CE291E020C080E373
:100C500091E01DC084E391E01AC088E391E017C0E1
:100C60008CE391E014C080E491E011C084E491E051
:100C70000EC088E491E00BC08CE491E008C080E5F0
:100C800091E005C084E591E002C088E591E00F9015
:100C9000DF91CF910895EE0FFF1F0590F491E02DA5
:100CA0000994AEE0B0E0E7E5F6E00C94FE080D89AB
:100CB0001E8986E08C831A8309838FEF9FE79E83CA
:100CC0008D83AE01475E5F4F6F89788DCE010196AF
:100CD0000E9474062F813885020F131FF8011082BD
:100CE0002E96E4E00C941A09AFE0B0E0EAE7F6E0F3
:100CF0000C94F0087C013B018A01DC0117961C92E0
:100D00001E92169713968C9181FFC3C19AE0292EEB
:100D1000FE0131964F01D70113969C91F30193FD8B
:100D2000859193FF81913F01882309F448C1853261
:100D300039F493FD859193FF81913F01853229F428
:100D4000B70190E00E946208E6CFB12C412C512CF3
:100D5000BFE1B51538F08B3209F188F4803201F12A
:100D6000833221F157FC3AC020ED280F2A3040F59C
:100D700056FE1FC0B29C200D1124B22E06C08D322B
:100D800091F0803379F7689450F8F30193FD8591E1
:100D900093FF81913F018111DBCF20C0689451F80E
:100DA000689452F8F2CF689453F8EFCF689454F8EF
:100DB000ECCF429C200D1124422E689455F8E5CFCB
:100DC0008E3229F456FCFBC0689456F8DECF8C3680
:100DD00019F4689457F8D9CF8836B9F2982F9F7DC7
:100DE00095549330C0F08336A1F18337C1F1833538
:100DF00009F05BC0D801CD90DD908D016B2D70E0C6
:100E000056FC02C06FEF7FEFC6010E944C085C01E8
:100E1000689457F80AC00C5F1F4FEFE3E983AA24D8
:100E2000A394B12C6401E89457F853FC04C04A140D
:100E30001B0409F018F5342CA114B10431F533204A
:100E400009F469CFB70180E290E00E9462083A9409
:100E5000F6CFD8018C9189830E5F1F4FE0CFF80148
:100E6000C190D1908F016B2D70E056FC02C06FEFE6
:100E70007FEFC6010E9457085C01D5CFB70180E221
:100E800090E00E9462084A94D2CFF60157FC859107
:100E900057FE81916F01B70190E00E946208311006
:100EA0003A94B1E0AB1AB108C7CF843619F089364D
:100EB00009F074C0F80157FE6AC061917191819187
:100EC00091918F01E52DEF76DE2E97FF09C0909569
:100ED0008095709561957F4F8F4F9F4F6894D7F89D
:100EE0002AE030E0A4010E949208C82EC818AC2C59
:100EF0005D2CD6FE0CC0E89450F8CB1440F4D4FE20
:100F000005C0D2FC03C05D2D5E7E552EAB2C54FE79
:100F100098C0FE01EC0DF11D8081803309F08AC07C
:100F2000652D697E562E752D7870372E53FC98C02E
:100F300050FE92C0BC2CA41418F44C0CB42CBA185B
:100F400054FE94C0B70180E390E00E94620852FE14
:100F500009C088E790E051FE02C088E590E0B70143
:100F60000E946208CB1408F48DC0CA94D12C8FEF74
:100F7000C81AD80AC80CD91CD6018E916D01B701C8
:100F800090E00E9462088C149D04B1F758CF6191E3
:100F90007191072E000C880B990B93CFD52CE894F8
:100FA000D4F82AE030E0853739F1F52DF97FDF2ECE
:100FB0008037A9F058F48835A9F08F36D9F0F701B9
:100FC000868197812F96E2E10C940C098837B9F756
:100FD000D4FE02C06894D2F820E130E00DC06894DD
:100FE000D4F8F6CF54FE03C02F2F2660D22E20E176
:100FF00032E002C028E030E0F801D7FE15C0419190
:101000005191619171914C875D876E877F878F01C8
:10101000A4016C857D858E859F850E949208C82ECF
:10102000C818E894D7F863CF81919191AC0170E032
:1010300060E0E9CF52FC02C0A39475CFA394A394BF
:1010400072CF852D867809F46ECFF6CFB70180E296
:1010500090E00E946208A394A414C0F3312C70CFD6
:10106000342C3A18A41408F46BCFF8CF852D867869
:1010700009F478CF8BE251FE80E257FC8DE2B70194
:1010800090E06ECFB70180E390E00E946208BA94CE
:1010900069CF8FEF9FEF96CFFC01059061507040B4
:1010A0000110D8F7809590958E0F9F1F0895FC0131
:1010B0006150704001900110D8F7809590958E0F87
:1010C0009F1F08950F931F93CF93DF93182F092F1E
:1010D000EB018B8181FD09C01FEF0FEF812F902F56
:1010E000DF91CF911F910F91089582FF14C02E813F
:1010F0003F818C819D81281739073CF4E881F98173
:10110000CF0101969983888310838E819F810196F8
:101110009F838E83E3CFE885F985812F0995892BFD
:10112000A1F3DACFFA01AA27283051F1203181F159
:10113000E8946F936E7F6E5F7F4F8F4F9F4FAF4FDF
:10114000B1E03ED0B4E03CD0670F781F891F9A1FF2
:10115000A11D680F791F8A1F911DA11D6A0F711DA6
:10116000811D911DA11D20D009F468943F912AE0B2
:10117000269F11243019305D3193DEF6CF0108959A
:10118000462F4770405D4193B3E00FD0C9F7F6CFCB
:10119000462F4F70405D4A3318F0495D31FD405293
:1011A000419302D0A9F7EACFB4E0A6959795879529
:1011B00077956795BA95C9F7009761057105089508
:1011C0009B01AC010A2E06945795479537952795B4
:1011D000BA95C9F7620F731F841F951FA01D08954C
:1011E0002F923F924F925F926F927F928F929F9237
:1011F000AF92BF92CF92DF92EF92FF920F931F9325
:10120000CF93DF93CDB7DEB7CA1BDB0B0FB6F894D5
:10121000DEBF0FBECDBF09942A88398848885F8415
:101220006E847D848C849B84AA84B984C884DF8086
:10123000EE80FD800C811B81AA81B981CE0FD11D6A
:101240000FB6F894DEBF0FBECDBFED010895F89440
:10125000FFCF2106240627062A062D063006330670
:0A126000360639063C063F0642063A
:10126A0044444444444200010203040625303264E3
:10127A003A253032643A253032640025303264200F
:10128A0025732025303264004A616E00466562008B
:10129A004D617200417072004D6179004A756E00AD
:1012AA004A756C0041756700536570004F6374009E
:0C12BA004E6F76004465630045727200C0
:00000001FF
