:100000000C9434000C9451000C9451000C94510049
:100010000C9451000C9451000C9451000C9451001C
:100020000C9451000C9451000C9451000C9451000C
:100030000C9451000C9451000C9467000C945100E6
:100040000C9451000C9451000C9451000C945100EC
:100050000C9451000C9451000C9451000C945100DC
:100060000C9451000C94510011241FBECFEFD8E026
:10007000DEBFCDBF11E0A0E0B1E0E0ECF5E002C0F2
:1000800005900D92A433B107D9F721E0A4E3B1E0C4
:1000900001C01D92A633B207E1F70E94D9020C9469
:1000A000DE020C9400000C94E701CF930E9414022E
:1000B000C82F8E3451F00E94E30186E490E00E9444
:1000C00085008C2FCF910C94D801CF9108958F93F8
:1000D0008FB78F939F938091340190913501019652
:1000E00090933501809334019F918F918FBF8F91B1
:1000F00018957894EEE6F0E080818260808384B584
:10010000826084BD87E087BD08959C0116BC85B5DB
:10011000856085BD40913401509135018091340155
:1001200090913501841B950B28173907BCF785B5CD
:100130008A7F85BD10923501109234010895823472
:1001400009F5493479F424B181E090E001C0880FC9
:100150006A95EAF7982F9095922394B995B1892BD7
:1001600085B908954F3401F524B181E090E001C0D4
:10017000880F6A95EAF7922F982B94B995B18095DC
:100180008923EECF843481F4493479F42AB181E0B3
:1001900090E001C0880F6A95EAF7982F9095922316
:1001A0009AB99BB1892B8BB908954F34E9F72AB1DD
:1001B00081E090E001C0880F6A95EAF7922F982BB2
:1001C0009AB99BB180958923EECF9A018234C9F404
:1001D0004115510559F425B181E090E001C0880F27
:1001E0006A95EAF78095822385B9089541305105D3
:1001F00011F585B101C0220F6A95EAF7282B25B9C0
:1002000008958434C1F44115510559F42BB181E0AE
:1002100090E001C0880F6A95EAF7809582238BB938
:1002200008954130510539F48BB101C0220F6A9510
:10023000EAF7282B2BB90895823449F483B190E072
:1002400002C0959587956A95E2F781700895843488
:1002500011F489B1F4CF08950F931F93CF93DF93D7
:1002600000E011E0C6E0D1E041E050E0F801658136
:100270008D810E94E50081E090E00E94850050E0C1
:1002800040E0F80165818D810E94E50081E090E009
:10029000DF91CF911F910F910C9485007F928F92E7
:1002A0009F92AF92BF92CF92DF92EF92FF920F9305
:1002B0001F93CF93DF93C82F762E662341F041E042
:1002C00050E06091040180910A010E94E50080E005
:1002D000C82E81E0D82E96E0E92E91E0F92E570144
:1002E000460104E010E0D0E0F40161914F01AE015D
:1002F000002E02C0559547950A94E2F741705527A4
:10030000F50181915F010E94E5000F5F1F4F0830EA
:10031000110551F70E942C0110E000E0F6016191F7
:100320006F01AE01002E02C0559547950A94E2F781
:1003300041705527F70181917F010E94E5000F5F11
:100340001F4F0430110551F70E942C017720A9F0AE
:1003500050E040E06091040180910A01DF91CF916B
:100360001F910F91FF90EF90DF90CF90BF90AF90D3
:100370009F908F907F900C94E500DF91CF911F911B
:100380000F91FF90EF90DF90CF90BF90AF909F9034
:100390008F907F900895CF93DF93EC018991811125
:1003A00003C0DF91CF91089561E00E944E01F6CF26
:1003B00061E00C944E0160E080E80C944E0160E036
:1003C00080EC0C944E0160E081E00C944E010F93A0
:1003D0001F93CF93DF930E947900C0E0D1E006E045
:1003E00011E069914FE4F80181918F010E949F0013
:1003F000F1E0C630DF07A9F760E083E30E944E0119
:1004000060E082E30E944E0160E088E20E944E01BB
:1004100060E08EE00E944E0160E081E0DF91CF91CC
:100420001F910F910C944E012F923F924F925F9229
:100430006F927F928F929F92AF92BF92CF92DF92F4
:10044000EF92FF920F931F93CF93DF9300D000D0D2
:10045000CDB7DEB708E211E050E3452E51E0552E4E
:1004600064E2C62E61E0D62E7CE1E72E71E0F72E25
:1004700052011A830983E981FA8160813296FA83F5
:10048000E98349E4F50181915F010E949F00F70132
:100490006081F2E0EF0EF11C4FE4F60181916F01F3
:1004A0000E949F0089819A818053914021F71C828C
:1004B0001B8288248A94982C22242A94322CF801B6
:1004C00060810E5F1F4F4FE4F20181912F010E9466
:1004D0009F0094E2692E91E0792E2CE1C22E21E05A
:1004E000D22EF12CE12CF6016081F2E0CF0ED11C6E
:1004F00049E4F30181913F010E949F00C6010297E8
:100500009A838983FC016081F30182915F010E94DB
:100510001C01811103C047012B803C804FE4E9811D
:10052000FA816081F50180810E949F00FFEFEF1A40
:10053000FF0A24E0E216F104B1F649E4F80132972B
:100540006081F201319780810E949F008B819C81A4
:1005500001969C838B83049709F0B1CF9FEF2916F6
:10056000390629F1EFEF8E169E0609F1F101EE0F23
:10057000FF1FEE0FFF1FE45FFE4FE80DF91D8081A6
:100580000F900F900F900F90DF91CF911F910F91CF
:10059000FF90EF90DF90CF90BF90AF909F908F90A3
:1005A0007F906F905F904F903F902F9008958EE4D2
:1005B000E7CF0E94E7010E945500FDCFF894FFCFDE
:1005C00000010203040644444444444231323341AE
:1005D00034353642373839432A302344000001008D
:1005E00002000300424242420700050006000700E5
:0405F00042444444F9
:00000001FF
