:100000000C9434000C9451000C9451000C94510049
:100010000C9451000C9451000C9451000C9451001C
:100020000C9451000C9451000C9451000C9451000C
:100030000C9451000C9451000C94D5000C94510078
:100040000C9451000C9451000C9451000C945100EC
:100050000C9451000C9451000C9451000C945100DC
:100060000C9451000C94510011241FBECFEFD8E026
:10007000DEBFCDBF11E0A0E0B1E0E4E8FCE002C0EB
:1000800005900D92A835B107D9F721E0A8E5B1E0B8
:1000900001C01D92AC36B207E1F70E94CC000C946F
:1000A00040060C940000CF93DF93CDB7DEB70E94DB
:1000B0009A030E94F30049E465E083E40E94DB03B5
:1000C0000000DF91CF910895CF93DF930F92CDB7CA
:1000D000DEB70E949801898389818E3481F188EC92
:1000E00090E00E940E018091580190915901895928
:1000F0009E4F2981FC0120838091580190915901E4
:1001000001969093590180935801809158019091E4
:1001100059010497A1F40E946A0387E691E00E94C6
:100120002D0388EE93E00E940E010E946A0384E38F
:1001300091E00E942D03109259011092580165E040
:1001400083E40E94E905882399F480915A01882F5D
:1001500090E021E0892B09F420E081E08227882FBC
:1001600090E0817080935A0184E690E00E940E0135
:1001700080915A01882339F00E947A0389E391E043
:100180000E942D0304C088E491E00E942D0300002A
:100190000F90DF91CF910895CF93DF93CDB7DEB766
:1001A0000E9453000E946400FDCF1F920F920FB671
:1001B0000F9211248F939F93CF93DF93CDB7DEB728
:1001C00080915B0190915C01019690935C0180931A
:1001D0005B010000DF91CF919F918F910F900FBE37
:1001E0000F901F901895CF93DF93CDB7DEB778941B
:1001F0008EE690E0FC0120818EE690E02260FC011A
:10020000208384E490E0FC01208184E490E022607B
:10021000FC0120830000DF91CF910895CF93DF93FD
:1002200000D000D0CDB7DEB79C838B8387E490E00D
:100230002DE7FC01208386E490E0FC01108285E438
:1002400090E0FC01208185E490E02360FC012083A4
:1002500080915B0190915C019A83898300002091D9
:100260005B0130915C0189819A81A901481B590B7E
:10027000CA012B813C81281739078CF785E490E06F
:10028000FC01208185E490E02C7FFC01208310920A
:100290005C0110925B0100000F900F900F900F9087
:1002A000DF91CF910895CF93DF9300D000D0CDB7E9
:1002B000DEB79C838B8387E490E028E0FC012083F9
:1002C00086E490E0FC01108285E490E0FC0120814E
:1002D00085E490E02160FC01208380915B01909196
:1002E0005C019A838983000020915B0130915C015D
:1002F00089819A81A901481B590BCA012B813C8134
:10030000281739078CF785E490E0FC01208185E40B
:1003100090E02E7FFC01208310925C0110925B0123
:1003200000000F900F900F900F90DF91CF910895E4
:10033000CF93DF93CDB7DEB72A970FB6F894DEBF21
:100340000FBECDBF8FEF9FEF9A8389838FEF9FEF13
:100350009C838B831E821D822DC08D819E81880F80
:10036000991F8C5F9E4FFC0180819181282F8D8188
:100370009E8180509F4FFC01808149E4622F0E9442
:10038000DB038D819E81880F991F805F9E4FFC014A
:1003900080819181282F8D819E81845F9E4FFC01F9
:1003A00080814FE4622F0E94DB038D819E81019644
:1003B0009E838D838D819E8104977CF218861F8297
:1003C0007FC08F819885880F991F8C5F9E4FFC019D
:1003D00080819181282F8F81988580509F4FFC01CB
:1003E00080814FE4622F0E94DB031A8619864AC07F
:1003F00089859A85880F991F805F9E4FFC018081B7
:100400009181282F89859A85845F9E4FFC01808188
:1004100049E4622F0E94DB0389859A85880F991F22
:10042000805F9E4FFC0180819181282F89859A856C
:10043000845F9E4FFC018081622F0E94E905882322
:1004400041F48F8198859A83898389859A859C83D5
:100450008B8389859A85880F991F805F9E4FFC0149
:1004600080819181282F89859A85845F9E4FFC0128
:1004700080814FE4622F0E94DB0389859A85019673
:100480009A87898789859A8504970CF4B1CF8F81E3
:100490009885880F991F8C5F9E4FFC018081918108
:1004A000282F8F81988580509F4FFC01808149E4DF
:1004B000622F0E94DB038F819885019698878F8336
:1004C0008F81988504970CF47CCF89819A8101965D
:1004D00021F08B819C81019611F48EE40FC08981FB
:1004E0009A819C01220F331F220F331F8B819C8125
:1004F000820F931F885E9E4FFC0180812A960FB663
:10050000F894DEBF0FBECDBFDF91CF910895CF939A
:10051000DF93CDB7DEB79091330180912D0141E09B
:1005200050E0692F0E941E058AE090E00E9453016E
:100530009091330180912D0140E050E0692F0E949D
:100540001E058AE090E00E9453010000DF91CF91E8
:100550000895CF93DF9300D000D000D0CDB7DEB7A1
:100560008D836E838E81882349F090913201809132
:100570002C0141E050E0692F0E941E051A82198269
:1005800025C08D81882F90E029813A812C5F3F4FD3
:1005900002C0959587952A95E2F7882F90E09C01F7
:1005A0002170332789819A81825D9E4FFC01608191
:1005B00089819A81885D9E4FFC018081A9010E94FA
:1005C0001E0589819A8101969A83898389819A81FE
:1005D0000497BCF20E9487021C821B8222C08D817C
:1005E000882F90E00B8002C0959587950A94E2F7DA
:1005F000882F90E09C01217033278B819C81825D44
:100600009E4FFC0160818B819C81885D9E4FFC0127
:100610008081A9010E941E058B819C8101969C838B
:100620008B838B819C810497D4F20E9487028E81F8
:10063000882349F09091320180912C0140E050E0F4
:10064000692F0E941E05000026960FB6F894DEBFA3
:100650000FBECDBFDF91CF910895CF93DF9300D030
:1006600000D0CDB7DEB79C838B831A82198210C06D
:1006700089819A812B813C81820F931FFC018081AB
:1006800061E00E94A90289819A8101969A838983F7
:1006900089819A812B813C81820F931FFC0180818B
:1006A000882331F7000000000F900F900F900F90FB
:1006B000DF91CF910895CF93DF930F92CDB7DEB73F
:1006C0008983898161E00E94A90200000F90DF9177
:1006D000CF910895CF93DF93CDB7DEB760E080E888
:1006E0000E94A90281E090E00E940E010000DF91CB
:1006F000CF910895CF93DF93CDB7DEB760E080EC64
:100700000E94A90281E090E00E940E010000DF91AA
:10071000CF910895CF93DF93CDB7DEB760E081E04E
:100720000E94A90281E090E00E940E010000DF918A
:10073000CF910895CF93DF9300D0CDB7DEB70E945D
:10074000F3001A82198215C089819A81825D9E4FB9
:10075000FC01208189819A81885D9E4FFC01808106
:100760004FE4622F0E94DB0389819A8101969A836C
:10077000898389819A8106973CF360E083E30E9434
:10078000A90260E082E30E94A90260E088E20E9480
:10079000A90260E08CE00E94A90260E081E00E9472
:1007A000A90281E090E00E940E0100000F900F90DE
:1007B000DF91CF910895CF93DF9300D00F92CDB703
:1007C000DEB789836A834B8391E08981823409F0A3
:1007D00090E081E02B81293409F080E0892388238F
:1007E00061F184E290E0FC018081482F8A81282F0A
:1007F00030E081E090E002C0880F991F2A95E2F76F
:100800008095242F282384E290E0FC01208385E258
:1008100090E0FC018081482F8A81282F30E081E020
:1008200090E002C0880F991F2A95E2F7242F282B09
:1008300085E290E0FC012083FAC08981823479F559
:100840008B818F3461F584E290E0FC018081482F38
:100850008A81282F30E081E090E002C0880F991F44
:100860002A95E2F7242F282B84E290E0FC012083D4
:1008700085E290E0FC018081482F8A81282F30E0BA
:1008800081E090E002C0880F991F2A95E2F78095D9
:10089000242F282385E290E0FC012083C8C08981B1
:1008A000843479F58B81893461F58AE290E0FC012A
:1008B0008081482F8A81282F30E081E090E002C0BB
:1008C000880F991F2A95E2F78095242F28238AE222
:1008D00090E0FC0120838BE290E0FC018081482FB6
:1008E0008A81282F30E081E090E002C0880F991FB4
:1008F0002A95E2F7242F282B8BE290E0FC0120833D
:1009000096C08981843479F58B818F3461F58AE2D0
:1009100090E0FC018081482F8A81282F30E081E01F
:1009200090E002C0880F991F2A95E2F7242F282B08
:100930008AE290E0FC0120838BE290E0FC01808160
:10094000482F8A81282F30E081E090E002C0880F94
:10095000991F2A95E2F78095242F28238BE290E0B7
:10096000FC01208364C08981833479F58B818934CB
:1009700061F587E290E0FC018081482F8A81282F71
:1009800030E081E090E002C0880F991F2A95E2F7DD
:100990008095242F282387E290E0FC01208388E2C1
:1009A00090E0FC018081482F8A81282F30E081E08F
:1009B00090E002C0880F991F2A95E2F7242F282B78
:1009C00088E290E0FC01208332C08981833479F58C
:1009D0008B818F3461F587E290E0FC018081482FA4
:1009E0008A81282F30E081E090E002C0880F991FB3
:1009F0002A95E2F7242F282B87E290E0FC01208340
:100A000088E290E0FC018081482F8A81282F30E025
:100A100081E090E002C0880F991F2A95E2F7809547
:100A2000242F282388E290E0FC01208300C00000EE
:100A30000F900F900F90DF91CF910895CF93DF9398
:100A400000D000D0CDB7DEB789836A835C834B8347
:100A500031E08981823409F030E021E08B819C8192
:100A6000892B09F020E0832F82238823B9F085E2C7
:100A700090E0FC018081482F8A81282F30E081E0BE
:100A800090E002C0880F991F2A95E2F78095242FE5
:100A9000282385E290E0FC01208393C08981823481
:100AA000D1F48B819C810197B1F485E290E0FC0147
:100AB0008081482F8A81282F30E081E090E002C0B9
:100AC000880F991F2A95E2F7242F282B85E290E0C2
:100AD000FC01208376C089818434D9F48B819C8188
:100AE000892BB9F48BE290E0FC018081482F8A8148
:100AF000282F30E081E090E002C0880F991F2A95EE
:100B0000E2F78095242F28238BE290E0FC012083DC
:100B100058C089818434D1F48B819C810197B1F4D0
:100B20008BE290E0FC018081482F8A81282F30E001
:100B300081E090E002C0880F991F2A95E2F7242FE8
:100B4000282B8BE290E0FC0120833BC08981833419
:100B5000D9F48B819C81892BB9F488E290E0FC0167
:100B60008081482F8A81282F30E081E090E002C008
:100B7000880F991F2A95E2F78095242F282388E271
:100B800090E0FC0120831DC089818334D1F48B81E6
:100B90009C810197B1F488E290E0FC018081482FAC
:100BA0008A81282F30E081E090E002C0880F991FF1
:100BB0002A95E2F7242F282B88E290E0FC0120837D
:100BC00000C000000F900F900F900F90DF91CF9119
:100BD0000895CF93DF9300D0CDB7DEB789836A83C2
:100BE00089818234B1F483E290E0FC018081882F16
:100BF00090E02A81222F30E002C0959587952A95B2
:100C0000E2F781709927892B11F081E034C080E0F0
:100C100032C089818434B1F489E290E0FC018081A2
:100C2000882F90E02A81222F30E002C09595879589
:100C30002A95E2F781709927892B11F081E01BC07A
:100C400080E019C089818334B1F486E290E0FC0130
:100C50008081882F90E02A81222F30E002C0959574
:100C600087952A95E2F781709927892B11F081E009
:100C700002C080E000C00F900F90DF91CF910895E7
:040C8000F894FFCF16
:100C84004244444407000500060007004242424231
:100C94000000010002000300313233413435364292
:100CA400373839432A3023444444444444420001FD
:100CB400020304062020202000446F6F7220697311
:100CC400206F70656E656400202020202020202085
:080CD400202020202020000058
:00000001FF
