:100000000C9434000C9451000C9451000C94510049
:100010000C9451000C9451000C9451000C9451001C
:100020000C9451000C9451000C940E030C9451004C
:100030000C9451000C9451000C9488000C945100C5
:100040000C9451000C9451000C9451000C945100EC
:100050000C9451000C9451000C9451000C945100DC
:100060000C9451000C94510011241FBECFEFD8E026
:10007000DEBFCDBF11E0A0E0B1E0E0E4FBE002C0F4
:1000800005900D92A433B107D9F721E0A4E3B1E0C4
:1000900001C01D92A234B207E1F70E94C1030C9483
:1000A0009E050C9400000E9408020C94A103CF93BB
:1000B000DF93CDB7DEB72A970FB6F894DEBF0FBE39
:1000C000CDBF6091360170913701809138019091D8
:1000D00039010E943804362F272F4AE0BE016F5F96
:1000E0007F4F832F922F0E9469050E940402CE0148
:1000F00001960E94EC0184E690E00E94A6002A96F8
:100100000FB6F894DEBF0FBECDBFDF91CF9108953B
:100110008F938FB78F939F93809134019091350186
:10012000019690933501809334019F918F918FBFF9
:100130008F9118957894EEE6F0E08081826080835C
:1001400084B5826084BD87E087BD08959C0116BC9C
:1001500085B5856085BD4091340150913501809110
:10016000340190913501841B950B28173907BCF792
:1001700085B58A7F85BD10923501109234010895AE
:10018000823409F5493479F424B181E090E001C06A
:10019000880F6A95EAF7982F9095922394B995B1B4
:1001A000892B85B908954F3401F524B181E090E0A1
:1001B00001C0880F6A95EAF7922F982B94B995B1F0
:1001C00080958923EECF843481F4493479F42AB1BF
:1001D00081E090E001C0880F6A95EAF7982F90952A
:1001E00092239AB99BB1892B8BB908954F34E9F7C3
:1001F0002AB181E090E001C0880F6A95EAF7922F5A
:10020000982B9AB99BB180958923EECF9A018234BD
:10021000C9F44115510559F425B181E090E001C0C0
:10022000880F6A95EAF78095822385B90895413051
:10023000510511F585B101C0220F6A95EAF7282B07
:1002400025B908958434C1F44115510559F42BB1F1
:1002500081E090E001C0880F6A95EAF780958223DB
:100260008BB908954130510539F48BB101C0220F8B
:100270006A95EAF7282B2BB90895823449F483B1A3
:1002800090E002C0959587956A95E2F78170089590
:10029000843411F489B1F4CF08950F931F93CF9351
:1002A000DF9300E011E0C6E0D1E041E050E0F8016A
:1002B00065818D810E94060181E090E00E94A60088
:1002C00050E040E0F80165818D810E94060181E0E7
:1002D00090E0DF91CF911F910F910C94A6007F9237
:1002E0008F929F92AF92BF92CF92DF92EF92FF9246
:1002F0000F931F93CF93DF93C82F762E662341F081
:1003000041E050E06091040180910A010E940601E1
:1003100080E0C82E81E0D82E96E0E92E91E0F92EFB
:100320005701460104E010E0D0E0F40161914F0173
:10033000AE01002E02C0559547950A94E2F7417030
:100340005527F50181915F010E9406010F5F1F4F44
:100350000830110551F70E944D0110E000E0F60150
:1003600061916F01AE01002E02C0559547950A9428
:10037000E2F741705527F70181917F010E94060144
:100380000F5F1F4F0430110551F70E944D01772078
:10039000A9F050E040E06091040180910A01DF91F2
:1003A000CF911F910F91FF90EF90DF90CF90BF9072
:1003B000AF909F908F907F900C940601DF91CF912A
:1003C0001F910F91FF90EF90DF90CF90BF90AF9073
:1003D0009F908F907F900895CF93DF93EC01899148
:1003E000811103C0DF91CF91089561E00E946F01F8
:1003F000F6CF61E00C946F0160E080E80C946F012F
:1004000060E080EC0C946F0160E081E00C946F017F
:100410000F931F93CF93DF930E949A00C0E0D1E027
:1004200006E011E069914FE4F80181918F010E948B
:10043000C000F1E0C630DF07A9F760E083E30E9467
:100440006F0160E082E30E946F0160E088E20E9439
:100450006F0160E08EE00E946F0160E081E0DF915B
:10046000CF911F910F910C946F012F923F924F9259
:100470005F926F927F928F929F92AF92BF92CF9234
:10048000DF92EF92FF920F931F93CF93DF9300D0F1
:1004900000D0CDB7DEB708E211E050E3452E51E0C1
:1004A000552E64E2C62E61E0D62E7CE1E72E71E087
:1004B000F72E52011A830983E981FA81608132960D
:1004C000FA83E98349E4F50181915F010E94C0004C
:1004D000F7016081F2E0EF0EF11C4FE4F60181912B
:1004E0006F010E94C00089819A818053914021F759
:1004F0001C821B8288248A94982C22242A94322CD1
:10050000F80160810E5F1F4F4FE4F20181912F01CE
:100510000E94C00094E2692E91E0792E2CE1C22E57
:1005200021E0D22EF12CE12CF6016081F2E0CF0E19
:10053000D11C49E4F30181913F010E94C000C60132
:1005400002979A838983FC016081F30182915F01A4
:100550000E943D01811103C047012B803C804FE484
:10056000E981FA816081F50180810E94C000FFEF7E
:10057000EF1AFF0A24E0E216F104B1F649E4F801AB
:1005800032976081F201319780810E94C0008B8197
:100590009C8101969C838B83049709F0B1CF9FEFD8
:1005A0002916390629F1EFEF8E169E0609F1F101A1
:1005B000EE0FFF1FEE0FFF1FE45FFE4FE80DF91D6A
:1005C00080810F900F900F900F90DF91CF911F912E
:1005D0000F91FF90EF90DF90CF90BF90AF909F90E2
:1005E0008F907F906F905F904F903F902F900895E5
:1005F0008EE4E7CF90917C00982B906490937C00E0
:1006000080917A00876C80937A0080917A0084FFD1
:10061000FCCF809178009091790008951F920F92FD
:100620000FB60F9211242F933F934F935F936F93C5
:100630007F938F939F93AF93BF93EF93FF93CF934A
:10064000DF9300D000D0CDB7DEB78091810086FF68
:1006500024C0809186009091870090933B01809305
:100660003A01809181008F7B809381000F900F90E1
:100670000F900F90DF91CF91FF91EF91BF91AF91CC
:100680009F918F917F916F915F914F913F912F91AA
:100690000F900FBE0F901F9018958091860090913B
:1006A0008700909341018093400180918100806494
:1006B00080938100809140019091410120913A0105
:1006C00030913B01821B930B9C0150E040E0298359
:1006D0003A834B835C83CA01B9010E946E0420E017
:1006E00034E244EF56E469837A838B839C83698187
:1006F0007A818B819C810E94C603F62FE72F462FBB
:10070000572FBC0140933C0150933D0160933E0143
:1007100070933F0120E038E247E856E4F983EA832A
:100720008B839C8369817A818B819C810E94FC04EC
:1007300060933601709337018093380190933901AB
:1007400095CFE1E8F0E0808184608083AFE6B0E09F
:100750008C9180628C938081806480837894239ACA
:10076000E0EBF0E08081836080838081806880831B
:10077000E1EBF0E080818660808389E18093B300C3
:1007800008950E9453000E945700FDCF0E94DA0393
:100790000C94C2040E94BB0458F00E94B40440F0C0
:1007A00029F45F3F29F00C94AB0451110C94F6042A
:1007B0000C94B1040E94D30468F39923B1F3552338
:1007C00091F3951B550BBB27AA2762177307840764
:1007D00038F09F5F5F4F220F331F441FAA1FA9F3FA
:1007E00035D00E2E3AF0E0E832D091505040E695E8
:1007F000001CCAF72BD0FE2F29D0660F771F881F49
:10080000BB1F261737074807AB07B0E809F0BB0B3B
:10081000802DBF01FF2793585F4F3AF09E3F51054F
:1008200078F00C94AB040C94F6045F3FE4F3983E2C
:10083000D4F3869577956795B795F7959F5FC9F738
:10084000880F911D9695879597F90895E1E0660FB9
:10085000771F881FBB1F621773078407BA0720F032
:10086000621B730B840BBA0BEE1F88F7E09508959B
:100870000E943F046894B1110C94F60408950E94FC
:10088000DB0488F09F5798F0B92F9927B751B0F043
:10089000E1F0660F771F881F991F1AF0BA95C9F704
:1008A00014C0B13091F00E94F504B1E008950C94A9
:1008B000F504672F782F8827B85F39F0B93FCCF35C
:1008C000869577956795B395D9F73EF49095809581
:1008D000709561957F4F8F4F9F4F0895E89409C0A1
:1008E00097FB3EF490958095709561957F4F8F4F63
:1008F0009F4F9923A9F0F92F96E9BB279395F69579
:10090000879577956795B795F111F8CFFAF4BB0FF6
:1009100011F460FF1BC06F5F7F4F8F4F9F4F16C05A
:10092000882311F096E911C0772321F09EE8872FE4
:10093000762F05C0662371F096E8862F70E060E0A0
:100940002AF09A95660F771F881FDAF7880F969519
:10095000879597F9089597F99F6780E870E060E0C0
:1009600008959FEF80EC089500240A941616170648
:1009700018060906089500240A9412161306140690
:1009800005060895092E0394000C11F4882352F0F3
:10099000BB0F40F4BF2B11F460FF04C06F5F7F4FAB
:1009A0008F4F9F4F089557FD9058440F551F59F092
:1009B0005F3F71F04795880F97FB991F61F09F3F4C
:1009C00079F087950895121613061406551FF2CF75
:1009D0004695F1DF08C0161617061806991FF1CFC5
:1009E00086957105610508940895E894BB276627EC
:1009F0007727CB0197F908950E940F050C94C20444
:100A00000E94B40438F00E94BB0420F0952311F03A
:100A10000C94AB040C94B10411240C94F6040E94C1
:100A2000D30470F3959FC1F3950F50E0551F629F5B
:100A3000F001729FBB27F00DB11D639FAA27F00D37
:100A4000B11DAA1F649F6627B00DA11D661F829F5E
:100A50002227B00DA11D621F739FB00DA11D621F43
:100A6000839FA00D611D221F749F3327A00D611D60
:100A7000231F849F600D211D822F762F6A2F112442
:100A80009F5750409AF0F1F088234AF0EE0FFF1F75
:100A9000BB1F661F771F881F91505040A9F79E3FCC
:100AA000510580F00C94AB040C94F6045F3FE4F322
:100AB000983ED4F3869577956795B795F795E79522
:100AC0009F5FC1F7FE2B880F911D9695879597F92B
:100AD0000895BB274A3031F4992322F4BDE2909562
:100AE00081959F4F0C947505BB27FB015527AA27BD
:100AF000880F991FAA1FA41710F0A41B83955051AB
:100B0000B9F7A05DAA3308F0A95DA193009779F722
:100B1000B111B1931192CB010C948E05DC01FC0153
:100B2000672F71917723E1F7329704C07C916D9321
:100B300070836291AE17BF07C8F30895F894FFCF92
:100B40000001020304064444444444423132334128
:100B500034353642373839432A3023440000010007
:100B6000020003004242424207000500060007005F
:040B70004244444473
:00000001FF
