:100000000C9434000C9451000C9451000C94510049
:100010000C9451000C9451000C9451000C9451001C
:100020000C9451000C9451000C9411050C94510047
:100030000C9451000C9451000C9451000C945100FC
:100040000C9451000C9451000C9451000C945100EC
:100050000C9451000C9451000C9451000C945100DC
:100060000C9451000C94510011241FBECFEFD8E026
:10007000DEBFCDBF11E0A0E0B1E0E2E0F0E102C000
:1000800005900D92A831B107D9F721E0A8E1B1E0C0
:1000900001C01D92A432B207E1F70E94A1000C94A6
:1000A000FF070C940000CF93DF93CDB7DEB70E941B
:1000B0006D020E94CF050000DF91CF910895CF938C
:1000C000DF93CDB7DEB762970FB6F894DEBF0FBEF1
:1000D000CDBF8091180190911901A0911A01B091A2
:1000E0001B018B879C87AD87BE876B857C858D8543
:1000F0009E850E948E066F87788B898B9A8B2F85C1
:1001000038894AE050E0CE010196BC01C9010E9445
:10011000BF078CE091E00E940002CE0101960E9490
:10012000000284EF91E00E94AA000E945D0200009C
:1001300062960FB6F894DEBF0FBECDBFDF91CF91B0
:100140000895CF93DF93CDB7DEB70E9453000E948E
:100150005F00FDCFCF93DF9300D000D0CDB7DEB7E7
:100160009C838B8384E490E0FC01208184E490E014
:100170002260FC01208387E490E02DE7FC012083CE
:100180001A8219822FC086E490E0FC01108285E477
:1001900090E0FC01208185E490E02360FC01208355
:1001A000000085E390E0FC018081882F90E0827060
:1001B0009927892BB1F385E390E0FC01208185E349
:1001C00090E02260FC01208385E490E0FC01208126
:1001D00085E490E02C7FFC01208389819A8101963F
:1001E0009A83898329813A818B819C8128173907D9
:1001F00054F2000000000F900F900F900F90DF91CD
:10020000CF910895CF93DF9300D000D0CDB7DEB764
:100210009C838B8384E490E0FC01208184E490E063
:100220002260FC01208387E490E028E0FC01208329
:100230001A8219822FC086E490E0FC01108285E4C6
:1002400090E0FC01208185E490E02160FC012083A6
:10025000000085E390E0FC018081882F90E08270AF
:100260009927892BB1F385E390E0FC01208185E398
:1002700090E02260FC01208385E490E0FC01208175
:1002800085E490E02E7FFC01208389819A8101968C
:100290009A83898329813A818B819C812817390728
:1002A00054F2000000000F900F900F900F90DF911C
:1002B000CF910895CF93DF93CDB7DEB790910B0127
:1002C0008091050141E050E0692F0E94EF0384E135
:1002D00090E00E94020190910B018091050140E0A5
:1002E00050E0692F0E94EF0384E190E00E94020138
:1002F0000000DF91CF910895CF93DF9300D000D01D
:1003000000D0CDB7DEB78D836E838E81882349F010
:1003100090910A018091040141E050E0692F0E9410
:10032000EF031A82198225C08D81882F90E02981E0
:100330003A812C5F3F4F02C0959587952A95E2F749
:10034000882F90E09C012170332789819A818A5FF0
:100350009E4FFC01608189819A8180509F4FFC01F2
:100360008081A9010E94EF0389819A8101969A8375
:10037000898389819A810497BCF20E945A011C8268
:100380001B8222C08D81882F90E00B8002C0959542
:1003900087950A94E2F7882F90E09C01217033271B
:1003A0008B819C818A5F9E4FFC0160818B819C8147
:1003B00080509F4FFC018081A9010E94EF038B8137
:1003C0009C8101969C838B838B819C810497D4F2C2
:1003D0000E945A018E81882349F090910A018091F0
:1003E000040140E050E0692F0E94EF0300002696D0
:1003F0000FB6F894DEBF0FBECDBFDF91CF91089549
:10040000CF93DF9300D000D0CDB7DEB79C838B8332
:100410001A82198210C089819A812B813C81820FB6
:10042000931FFC01808161E00E947C0189819A8197
:1004300001969A83898389819A812B813C81820FDD
:10044000931FFC018081882331F7000000000F908A
:100450000F900F900F90DF91CF910895CF93DF937E
:100460000F92CDB7DEB78983898161E00E947C015C
:1004700000000F90DF91CF910895CF93DF93CDB718
:10048000DEB760E080E80E947C0182E090E00E949C
:10049000AA000000DF91CF910895CF93DF93CDB7ED
:1004A000DEB760E080EC0E947C0182E090E00E9478
:1004B000AA000000DF91CF910895CF93DF93CDB7CD
:1004C000DEB760E081E00E947C0182E090E00E9463
:1004D000AA000000DF91CF910895CF93DF9300D061
:1004E000CDB7DEB71A82198215C089819A818A5FD9
:1004F0009E4FFC01208189819A8180509F4FFC0191
:1005000080814FE4622F0E94AC0289819A8101961A
:100510009A83898389819A8106973CF360E083E31B
:100520000E947C0160E082E30E947C0160E088E23E
:100530000E947C0160E08CE00E947C0160E081E030
:100540000E947C018AE090E00E94AA0000000F90C7
:100550000F90DF91CF910895CF93DF9300D00F924A
:10056000CDB7DEB789836A834B8391E0898182347A
:1005700009F090E081E02B81293409F080E08923A3
:10058000882361F184E290E0FC018081482F8A8118
:10059000282F30E081E090E002C0880F991F2A9553
:1005A000E2F78095242F282384E290E0FC01208349
:1005B00085E290E0FC018081482F8A81282F30E07D
:1005C00081E090E002C0880F991F2A95E2F7242F5E
:1005D000282B85E290E0FC012083FAC089818234D7
:1005E00079F58B818F3461F584E290E0FC018081A4
:1005F000482F8A81282F30E081E090E002C0880FE8
:10060000991F2A95E2F7242F282B84E290E0FC0121
:10061000208385E290E0FC018081482F8A81282F89
:1006200030E081E090E002C0880F991F2A95E2F740
:100630008095242F282385E290E0FC012083C8C008
:100640008981843479F58B81893461F58AE290E07F
:10065000FC018081482F8A81282F30E081E090E0E2
:1006600002C0880F991F2A95E2F78095242F28232E
:100670008AE290E0FC0120838BE290E0FC01808123
:10068000482F8A81282F30E081E090E002C0880F57
:10069000991F2A95E2F7242F282B8BE290E0FC018A
:1006A000208396C08981843479F58B818F3461F5FC
:1006B0008AE290E0FC018081482F8A81282F30E077
:1006C00081E090E002C0880F991F2A95E2F7242F5D
:1006D000282B8AE290E0FC0120838BE290E0FC0171
:1006E0008081482F8A81282F30E081E090E002C08D
:1006F000880F991F2A95E2F78095242F28238BE2F3
:1007000090E0FC01208364C08981833479F58B817A
:10071000893461F587E290E0FC018081482F8A816D
:10072000282F30E081E090E002C0880F991F2A95C1
:10073000E2F78095242F282387E290E0FC012083B4
:1007400088E290E0FC018081482F8A81282F30E0E8
:1007500081E090E002C0880F991F2A95E2F7242FCC
:10076000282B88E290E0FC01208332C08981833409
:1007700079F58B818F3461F587E290E0FC0180810F
:10078000482F8A81282F30E081E090E002C0880F56
:10079000991F2A95E2F7242F282B87E290E0FC018D
:1007A000208388E290E0FC018081482F8A81282FF5
:1007B00030E081E090E002C0880F991F2A95E2F7AF
:1007C0008095242F282388E290E0FC01208300C03C
:1007D00000000F900F900F90DF91CF910895CF936D
:1007E000DF9300D000D0CDB7DEB789836A835C8306
:1007F0004B8331E08981823409F030E021E08B8144
:100800009C81892B09F020E0832F82238823B9F073
:1008100085E290E0FC018081482F8A81282F30E01A
:1008200081E090E002C0880F991F2A95E2F7809539
:10083000242F282385E290E0FC01208393C0898146
:100840008234D1F48B819C810197B1F485E290E0F0
:10085000FC018081482F8A81282F30E081E090E0E0
:1008600002C0880F991F2A95E2F7242F282B85E2D2
:1008700090E0FC01208376C089818434D9F48B8197
:100880009C81892BB9F48BE290E0FC018081482F98
:100890008A81282F30E081E090E002C0880F991F04
:1008A0002A95E2F78095242F28238BE290E0FC0123
:1008B000208358C089818434D1F48B819C81019735
:1008C000B1F48BE290E0FC018081482F8A81282FCF
:1008D00030E081E090E002C0880F991F2A95E2F78E
:1008E000242F282B8BE290E0FC0120833BC08981E0
:1008F0008334D9F48B819C81892BB9F488E290E010
:10090000FC018081482F8A81282F30E081E090E02F
:1009100002C0880F991F2A95E2F78095242F28237B
:1009200088E290E0FC0120831DC089818334D1F4EA
:100930008B819C810197B1F488E290E0FC01808179
:10094000482F8A81282F30E081E090E002C0880F94
:10095000991F2A95E2F7242F282B88E290E0FC01CA
:10096000208300C000000F900F900F900F90DF9138
:10097000CF910895CF93DF9300D0CDB7DEB78983B1
:100980006A8389818234B1F483E290E0FC01808142
:10099000882F90E02A81222F30E002C0959587951C
:1009A0002A95E2F781709927892B11F081E034C0F4
:1009B00080E032C089818434B1F489E290E0FC01A6
:1009C0008081882F90E02A81222F30E002C0959507
:1009D00087952A95E2F781709927892B11F081E09C
:1009E0001BC080E019C089818334B1F486E290E0B5
:1009F000FC018081882F90E02A81222F30E002C004
:100A0000959587952A95E2F781709927892B11F0A2
:100A100081E002C080E000C00F900F90DF91CF9185
:100A200008951F920F920FB60F9211242F933F93A8
:100A30004F935F936F937F938F939F93AF93BF93E6
:100A4000EF93FF93CF93DF93CDB7DEB76497DEBF0D
:100A5000CDBF81E890E0DC018C91882F90E080741C
:100A60009927892B99F086E890E0FC01808191819B
:100A700090931D0180931C0181E890E0DC012C9192
:100A800081E890E02F7BFC0120836FC086E890E036
:100A9000DC018D919C91909323018093220181E848
:100AA00090E0FC01208181E890E02064DC012C933F
:100AB000209122013091230180911C0190911D0110
:100AC000F901E81BF90BCF019C0140E050E02987B8
:100AD0003A874B875C8769857A858B859C850E94E0
:100AE000C40669837A838B839C8320E034E244EFDD
:100AF00056E469817A818B819C810E941C066D87F6
:100B00007E878F87988B8D859E85AF85B8898093EA
:100B10001E0190931F01A0932001B09321018091A9
:100B20001E0190911F01A0912001B09121018D83A0
:100B30009E83AF83B88720E038E247E856E46D81B2
:100B40007E818F8198850E945207698B7A8B8B8B6F
:100B50009C8B89899A89AB89BC8980931801909371
:100B60001901A0931A01B0931B01000064960FB6FF
:100B7000F894DEBF0FBECDBFDF91CF91FF91EF9113
:100B8000BF91AF919F918F917F916F915F914F91A5
:100B90003F912F910F900FBE0F901F901895CF93FC
:100BA000DF93CDB7DEB781E890E0FC01208181E8DA
:100BB00090E02460FC0120838FE690E0FC0120811E
:100BC0008FE690E02062FC01208381E890E0FC0148
:100BD000208181E890E02064FC012083789484E205
:100BE00090E0FC01208184E290E02860FC012083F9
:100BF00080EB90E0FC01208180EB90E02360FC0121
:100C0000208380EB90E0FC01208180EB90E0206865
:100C1000FC01208381EB90E0FC01208181EB90E0DE
:100C20002660FC01208383EB90E029E1FC01208316
:100C30000000DF91CF9108950E9430060C941807B0
:100C40000E94110758F00E940A0740F029F45F3F04
:100C500029F00C94010751110C944C070C940707D0
:100C60000E94290768F39923B1F3552391F3951B4B
:100C7000550BBB27AA2762177307840738F09F5FBD
:100C80005F4F220F331F441FAA1FA9F335D00E2E2A
:100C90003AF0E0E832D091505040E695001CCAF797
:100CA0002BD0FE2F29D0660F771F881FBB1F26175A
:100CB00037074807AB07B0E809F0BB0B802DBF0131
:100CC000FF2793585F4F3AF09E3F510578F00C9400
:100CD00001070C944C075F3FE4F3983ED4F38695EC
:100CE00077956795B795F7959F5FC9F7880F911D21
:100CF0009695879597F90895E1E0660F771F881F0D
:100D0000BB1F621773078407BA0720F0621B730BBF
:100D1000840BBA0BEE1F88F7E09508950E949506A4
:100D20006894B1110C944C0708950E94310788F023
:100D30009F5798F0B92F9927B751B0F0E1F0660F9F
:100D4000771F881F991F1AF0BA95C9F714C0B130E0
:100D500091F00E944B07B1E008950C944B07672F68
:100D6000782F8827B85F39F0B93FCCF3869577950F
:100D70006795B395D9F73EF49095809570956195F8
:100D80007F4F8F4F9F4F0895E89409C097FB3EF423
:100D900090958095709561957F4F8F4F9F4F9923C8
:100DA000A9F0F92F96E9BB279395F6958795779546
:100DB0006795B795F111F8CFFAF4BB0F11F460FF06
:100DC0001BC06F5F7F4F8F4F9F4F16C0882311F05E
:100DD00096E911C0772321F09EE8872F762F05C072
:100DE000662371F096E8862F70E060E02AF09A950D
:100DF000660F771F881FDAF7880F9695879597F902
:100E0000089597F99F6780E870E060E008959FEF8C
:100E100080EC089500240A94161617061806090691
:100E2000089500240A941216130614060506089560
:100E3000092E0394000C11F4882352F0BB0F40F4E8
:100E4000BF2B11F460FF04C06F5F7F4F8F4F9F4F28
:100E5000089557FD9058440F551F59F05F3F71F0AA
:100E60004795880F97FB991F61F09F3F79F0879511
:100E70000895121613061406551FF2CF4695F1DF9A
:100E800008C0161617061806991FF1CF869571052A
:100E9000610508940895E894BB2766277727CB015E
:100EA00097F908950E9465070C9418070E940A0795
:100EB00038F00E94110720F0952311F00C940107DF
:100EC0000C94070711240C944C070E94290770F317
:100ED000959FC1F3950F50E0551F629FF001729FDF
:100EE000BB27F00DB11D639FAA27F00DB11DAA1FEE
:100EF000649F6627B00DA11D661F829F2227B00D3B
:100F0000A11D621F739FB00DA11D621F839FA00DC5
:100F1000611D221F749F3327A00D611D231F849F15
:100F2000600D211D822F762F6A2F11249F5750406C
:100F30009AF0F1F088234AF0EE0FFF1FBB1F661FE7
:100F4000771F881F91505040A9F79E3F510580F0B0
:100F50000C9401070C944C075F3FE4F3983ED4F3E4
:100F6000869577956795B795F795E7959F5FC1F754
:100F7000FE2B880F911D9695879597F90895453218
:100F8000510520F4423010F00C94CA07FB01108286
:100F9000CB010895BB274A3031F4992322F4BDE2F6
:100FA000909581959F4F0C94D607BB27FB01552741
:100FB000AA27880F991FAA1FA41710F0A41B8395B6
:100FC0005051B9F7A05DAA3308F0A95DA19300972D
:100FD00079F7B111B1931192CB010C94EF07DC01B9
:100FE000FC01672F71917723E1F7329704C07C9160
:100FF0006D9370836291AE17BF07C8F30895F8949C
:02100000FFCF20
:101002004444444444420001020304066469737484
:08101200616E63653A200000E5
:00000001FF
